{
  "contractName": "AACT",
  "abi": [
    {
      "constant": true,
      "inputs": [],
      "name": "name",
      "outputs": [
        {
          "name": "",
          "type": "string"
        }
      ],
      "payable": false,
      "stateMutability": "view",
      "type": "function"
    },
    {
      "constant": true,
      "inputs": [
        {
          "name": "",
          "type": "uint256"
        }
      ],
      "name": "footstoneAccounts",
      "outputs": [
        {
          "name": "",
          "type": "address"
        }
      ],
      "payable": false,
      "stateMutability": "view",
      "type": "function"
    },
    {
      "constant": true,
      "inputs": [],
      "name": "ceoAddress",
      "outputs": [
        {
          "name": "",
          "type": "address"
        }
      ],
      "payable": false,
      "stateMutability": "view",
      "type": "function"
    },
    {
      "constant": false,
      "inputs": [
        {
          "name": "_newCEO",
          "type": "address"
        }
      ],
      "name": "setCEO",
      "outputs": [],
      "payable": false,
      "stateMutability": "nonpayable",
      "type": "function"
    },
    {
      "constant": true,
      "inputs": [
        {
          "name": "",
          "type": "uint8"
        }
      ],
      "name": "supplys",
      "outputs": [
        {
          "name": "",
          "type": "uint256"
        }
      ],
      "payable": false,
      "stateMutability": "view",
      "type": "function"
    },
    {
      "constant": true,
      "inputs": [],
      "name": "decimals",
      "outputs": [
        {
          "name": "",
          "type": "uint8"
        }
      ],
      "payable": false,
      "stateMutability": "view",
      "type": "function"
    },
    {
      "constant": false,
      "inputs": [],
      "name": "unpause",
      "outputs": [],
      "payable": false,
      "stateMutability": "nonpayable",
      "type": "function"
    },
    {
      "constant": true,
      "inputs": [],
      "name": "paused",
      "outputs": [
        {
          "name": "",
          "type": "bool"
        }
      ],
      "payable": false,
      "stateMutability": "view",
      "type": "function"
    },
    {
      "constant": true,
      "inputs": [
        {
          "name": "",
          "type": "address"
        }
      ],
      "name": "referees",
      "outputs": [
        {
          "name": "",
          "type": "address"
        }
      ],
      "payable": false,
      "stateMutability": "view",
      "type": "function"
    },
    {
      "constant": true,
      "inputs": [
        {
          "name": "_owner",
          "type": "address"
        }
      ],
      "name": "balanceOf",
      "outputs": [
        {
          "name": "balance",
          "type": "uint256"
        }
      ],
      "payable": false,
      "stateMutability": "view",
      "type": "function"
    },
    {
      "constant": false,
      "inputs": [],
      "name": "pause",
      "outputs": [],
      "payable": false,
      "stateMutability": "nonpayable",
      "type": "function"
    },
    {
      "constant": true,
      "inputs": [],
      "name": "TOTAL_SUPPLY",
      "outputs": [
        {
          "name": "",
          "type": "uint256"
        }
      ],
      "payable": false,
      "stateMutability": "view",
      "type": "function"
    },
    {
      "constant": true,
      "inputs": [],
      "name": "symbol",
      "outputs": [
        {
          "name": "",
          "type": "string"
        }
      ],
      "payable": false,
      "stateMutability": "view",
      "type": "function"
    },
    {
      "constant": true,
      "inputs": [
        {
          "name": "",
          "type": "address"
        }
      ],
      "name": "roles",
      "outputs": [
        {
          "name": "",
          "type": "uint8"
        }
      ],
      "payable": false,
      "stateMutability": "view",
      "type": "function"
    },
    {
      "constant": false,
      "inputs": [
        {
          "name": "_to",
          "type": "address"
        },
        {
          "name": "_value",
          "type": "uint256"
        }
      ],
      "name": "transfer",
      "outputs": [
        {
          "name": "",
          "type": "bool"
        }
      ],
      "payable": false,
      "stateMutability": "nonpayable",
      "type": "function"
    },
    {
      "constant": true,
      "inputs": [
        {
          "name": "",
          "type": "uint256"
        }
      ],
      "name": "supplyTypes",
      "outputs": [
        {
          "name": "",
          "type": "uint8"
        }
      ],
      "payable": false,
      "stateMutability": "view",
      "type": "function"
    },
    {
      "constant": true,
      "inputs": [
        {
          "name": "",
          "type": "address"
        }
      ],
      "name": "companys",
      "outputs": [
        {
          "name": "valuation",
          "type": "uint256"
        },
        {
          "name": "taxAACT",
          "type": "uint256"
        },
        {
          "name": "aipodAACT",
          "type": "uint256"
        },
        {
          "name": "livelihoodAACT",
          "type": "uint256"
        },
        {
          "name": "footstoneAACT",
          "type": "uint256"
        },
        {
          "name": "salesmanAACT",
          "type": "uint256"
        }
      ],
      "payable": false,
      "stateMutability": "view",
      "type": "function"
    },
    {
      "inputs": [],
      "payable": false,
      "stateMutability": "nonpayable",
      "type": "constructor"
    },
    {
      "anonymous": false,
      "inputs": [
        {
          "indexed": false,
          "name": "balanceAACT",
          "type": "uint256"
        },
        {
          "indexed": false,
          "name": "taxAACT",
          "type": "uint256"
        },
        {
          "indexed": false,
          "name": "aipodAACT",
          "type": "uint256"
        },
        {
          "indexed": false,
          "name": "livelihoodAACT",
          "type": "uint256"
        },
        {
          "indexed": false,
          "name": "footstoneAACT",
          "type": "uint256"
        },
        {
          "indexed": false,
          "name": "salesmanAACT",
          "type": "uint256"
        }
      ],
      "name": "CompanyWorthUpload",
      "type": "event"
    },
    {
      "anonymous": false,
      "inputs": [
        {
          "indexed": false,
          "name": "rewardAddress",
          "type": "address"
        },
        {
          "indexed": false,
          "name": "rewardAACT",
          "type": "uint256"
        },
        {
          "indexed": false,
          "name": "companyAddress",
          "type": "address"
        }
      ],
      "name": "GainRewardFromCompany",
      "type": "event"
    },
    {
      "anonymous": false,
      "inputs": [
        {
          "indexed": false,
          "name": "from",
          "type": "address"
        },
        {
          "indexed": false,
          "name": "amount",
          "type": "uint256"
        }
      ],
      "name": "WithdrawAACT",
      "type": "event"
    },
    {
      "anonymous": false,
      "inputs": [
        {
          "indexed": true,
          "name": "owner",
          "type": "address"
        },
        {
          "indexed": true,
          "name": "spender",
          "type": "address"
        },
        {
          "indexed": false,
          "name": "value",
          "type": "uint256"
        }
      ],
      "name": "Approval",
      "type": "event"
    },
    {
      "anonymous": false,
      "inputs": [
        {
          "indexed": true,
          "name": "from",
          "type": "address"
        },
        {
          "indexed": true,
          "name": "to",
          "type": "address"
        },
        {
          "indexed": false,
          "name": "value",
          "type": "uint256"
        }
      ],
      "name": "Transfer",
      "type": "event"
    },
    {
      "constant": false,
      "inputs": [
        {
          "name": "_to",
          "type": "address"
        },
        {
          "name": "_amount",
          "type": "uint256"
        }
      ],
      "name": "transferAACT",
      "outputs": [],
      "payable": false,
      "stateMutability": "nonpayable",
      "type": "function"
    },
    {
      "constant": false,
      "inputs": [
        {
          "name": "_from",
          "type": "address"
        },
        {
          "name": "_amount",
          "type": "uint256"
        }
      ],
      "name": "withdrawAACT",
      "outputs": [],
      "payable": false,
      "stateMutability": "nonpayable",
      "type": "function"
    },
    {
      "constant": false,
      "inputs": [
        {
          "name": "_new",
          "type": "address"
        },
        {
          "name": "_role",
          "type": "uint8"
        }
      ],
      "name": "setRole",
      "outputs": [],
      "payable": false,
      "stateMutability": "nonpayable",
      "type": "function"
    },
    {
      "constant": false,
      "inputs": [
        {
          "name": "_new",
          "type": "address"
        },
        {
          "name": "_referee",
          "type": "address"
        },
        {
          "name": "_valuation",
          "type": "uint256"
        },
        {
          "name": "_supplyType",
          "type": "uint8"
        },
        {
          "name": "_salesmen",
          "type": "address[]"
        }
      ],
      "name": "uploadCompanyWorth",
      "outputs": [],
      "payable": false,
      "stateMutability": "nonpayable",
      "type": "function"
    },
    {
      "constant": true,
      "inputs": [],
      "name": "totalSupply",
      "outputs": [
        {
          "name": "",
          "type": "uint256"
        }
      ],
      "payable": false,
      "stateMutability": "view",
      "type": "function"
    },
    {
      "constant": true,
      "inputs": [],
      "name": "historySupply",
      "outputs": [
        {
          "name": "",
          "type": "uint256"
        }
      ],
      "payable": false,
      "stateMutability": "view",
      "type": "function"
    },
    {
      "constant": false,
      "inputs": [
        {
          "name": "_newType",
          "type": "uint8"
        }
      ],
      "name": "addSupplyType",
      "outputs": [],
      "payable": false,
      "stateMutability": "nonpayable",
      "type": "function"
    },
    {
      "constant": false,
      "inputs": [
        {
          "name": "_from",
          "type": "address"
        },
        {
          "name": "_to",
          "type": "address"
        },
        {
          "name": "_value",
          "type": "uint256"
        }
      ],
      "name": "transferFrom",
      "outputs": [
        {
          "name": "",
          "type": "bool"
        }
      ],
      "payable": false,
      "stateMutability": "nonpayable",
      "type": "function"
    },
    {
      "constant": false,
      "inputs": [
        {
          "name": "_spender",
          "type": "address"
        },
        {
          "name": "_value",
          "type": "uint256"
        }
      ],
      "name": "approve",
      "outputs": [
        {
          "name": "",
          "type": "bool"
        }
      ],
      "payable": false,
      "stateMutability": "nonpayable",
      "type": "function"
    },
    {
      "constant": true,
      "inputs": [
        {
          "name": "_owner",
          "type": "address"
        },
        {
          "name": "_spender",
          "type": "address"
        }
      ],
      "name": "allowance",
      "outputs": [
        {
          "name": "",
          "type": "uint256"
        }
      ],
      "payable": false,
      "stateMutability": "view",
      "type": "function"
    },
    {
      "constant": false,
      "inputs": [
        {
          "name": "_spender",
          "type": "address"
        },
        {
          "name": "_addedValue",
          "type": "uint256"
        }
      ],
      "name": "increaseApproval",
      "outputs": [
        {
          "name": "",
          "type": "bool"
        }
      ],
      "payable": false,
      "stateMutability": "nonpayable",
      "type": "function"
    },
    {
      "constant": false,
      "inputs": [
        {
          "name": "_spender",
          "type": "address"
        },
        {
          "name": "_subtractedValue",
          "type": "uint256"
        }
      ],
      "name": "decreaseApproval",
      "outputs": [
        {
          "name": "",
          "type": "bool"
        }
      ],
      "payable": false,
      "stateMutability": "nonpayable",
      "type": "function"
    }
  ],
  "bytecode": "0x60806040526000805460a060020a60ff021916905534801561002057600080fd5b5060008054600160a060020a03338116600160a060020a031960a060020a60ff0219909316740100000000000000000000000000000000000000001792909216919091178083551681526009602090815260408220805460ff1916600517905560048054600181810183558285528382047f8a35acfbc15ff81a39ae7d344fd709f28e8600b4aa8c65c6b64bfe7fe36bd19b9081018054601f94851661010090810a60ff818102199093161790925585549384019095559482040180549190921690930a600281810291909302199093169290921790915555611a1c806101086000396000f3006080604052600436106101745763ffffffff7c010000000000000000000000000000000000000000000000000000000060003504166306fdde03811461017957806307f177a914610203578063095ea7b3146102375780630a0f81681461026f5780630b0493fb1461028457806318160ddd146102aa57806323b872dd146102d157806327d7874c146102fb5780632be6b7dc1461031c578063313ce5671461033757806338320f0e146103625780633f4ba83a146103865780634ca4759b1461039b578063571c3e60146104125780635c975abb1461043957806364a60b471461044e578063661884631461046f57806370a08231146104935780638456cb59146104b4578063902d55a5146104c957806395d89b41146104de57806399374642146104f3578063a503883114610514578063a9059cbb1461052f578063aa9ad4b014610553578063b848caea1461056b578063d73dd62314610580578063db047c77146105a4578063dd62ed3e146105f8575b600080fd5b34801561018557600080fd5b5061018e61061f565b6040805160208082528351818301528351919283929083019185019080838360005b838110156101c85781810151838201526020016101b0565b50505050905090810190601f1680156101f55780820380516001836020036101000a031916815260200191505b509250505060405180910390f35b34801561020f57600080fd5b5061021b600435610656565b60408051600160a060020a039092168252519081900360200190f35b34801561024357600080fd5b5061025b600160a060020a036004351660243561067e565b604080519115158252519081900360200190f35b34801561027b57600080fd5b5061021b61070c565b34801561029057600080fd5b506102a8600160a060020a036004351660243561071b565b005b3480156102b657600080fd5b506102bf610812565b60408051918252519081900360200190f35b3480156102dd57600080fd5b5061025b600160a060020a0360043581169060243516604435610818565b34801561030757600080fd5b506102a8600160a060020a03600435166109c0565b34801561032857600080fd5b506102bf60ff60043516610a1f565b34801561034357600080fd5b5061034c610a31565b6040805160ff9092168252519081900360200190f35b34801561036e57600080fd5b506102a8600160a060020a0360043516602435610a36565b34801561039257600080fd5b506102a8610b48565b3480156103a757600080fd5b5060408051602060046084358181013583810280860185019096528085526102a8958335600160a060020a039081169660248035909216966044359660643560ff16963696919560a4959091019282919085019084908082843750949750610b9b9650505050505050565b34801561041e57600080fd5b506102a8600160a060020a036004351660ff60243516610fa2565b34801561044557600080fd5b5061025b611097565b34801561045a57600080fd5b5061021b600160a060020a03600435166110a7565b34801561047b57600080fd5b5061025b600160a060020a03600435166024356110c2565b34801561049f57600080fd5b506102bf600160a060020a03600435166111e6565b3480156104c057600080fd5b506102a8611201565b3480156104d557600080fd5b506102bf611259565b3480156104ea57600080fd5b5061018e611263565b3480156104ff57600080fd5b5061034c600160a060020a036004351661129a565b34801561052057600080fd5b506102a860ff600435166112af565b34801561053b57600080fd5b5061025b600160a060020a036004351660243561138e565b34801561055f57600080fd5b5061034c6004356114af565b34801561057757600080fd5b506102bf6114e1565b34801561058c57600080fd5b5061025b600160a060020a03600435166024356114e7565b3480156105b057600080fd5b506105c5600160a060020a03600435166115af565b604080519687526020870195909552858501939093526060850191909152608084015260a0830152519081900360c00190f35b34801561060457600080fd5b506102bf600160a060020a03600435811690602435166115e4565b60408051808201909152600c81527fe9be99e8b49de5a49ae5a49a0000000000000000000000000000000000000000602082015281565b600780548290811061066457fe5b600091825260209091200154600160a060020a0316905081565b6000805460a060020a900460ff161561069657600080fd5b635e0b708042116106a657600080fd5b600160a060020a03338116600081815260086020908152604080832094881680845294825291829020869055815186815291517f8c5be1e5ebec7d5bd14f71427d1e84f3dd0314c0f7b2291e5b200ac8c7c3b9259281900390910190a350600192915050565b600054600160a060020a031681565b60005460a060020a900460ff161561073257600080fd5b60005433600160a060020a0390811691161461074d57600080fd5b600160a060020a03821660009081526001602052604090205481111561077257600080fd5b600160a060020a03821660009081526001602052604090205461079b908263ffffffff61160f16565b600160a060020a0383166000908152600160205260409020556003546107c7908263ffffffff61162116565b60035560408051600160a060020a03841681526020810183905281517f8f7a51ecf866418f2bd713532e1e833136345044a2906d32ec351b85f55fe3a9929181900390910190a15050565b60025490565b6000805460a060020a900460ff161561083057600080fd5b635e0b7080421161084057600080fd5b600160a060020a038316151561085557600080fd5b600160a060020a03841660009081526001602052604090205482111561087a57600080fd5b600160a060020a03808516600090815260086020908152604080832033909416835292905220548211156108ad57600080fd5b600160a060020a0384166000908152600160205260409020546108d6908363ffffffff61160f16565b600160a060020a03808616600090815260016020526040808220939093559085168152205461090b908363ffffffff61162116565b600160a060020a03808516600090815260016020908152604080832094909455878316825260088152838220339093168252919091522054610953908363ffffffff61160f16565b600160a060020a038086166000818152600860209081526040808320338616845282529182902094909455805186815290519287169391927fddf252ad1be2c89b69c2b068fc378daa952ba7f163c4a11628f55a4df523b3ef929181900390910190a35060019392505050565b60005433600160a060020a039081169116146109db57600080fd5b600160a060020a03811615156109f057600080fd5b6000805473ffffffffffffffffffffffffffffffffffffffff1916600160a060020a0392909216919091179055565b60056020526000908152604090205481565b601281565b60005460a060020a900460ff1615610a4d57600080fd5b60005433600160a060020a03908116911614610a6857600080fd5b60008054600160a060020a0316815260016020526040902054811115610a8d57600080fd5b60008054600160a060020a0316815260016020526040902054610ab6908263ffffffff61160f16565b60008054600160a060020a0390811682526001602052604080832093909355841681522054610aeb908263ffffffff61162116565b600160a060020a0380841660008181526001602090815260408083209590955590548451868152945192949316927fddf252ad1be2c89b69c2b068fc378daa952ba7f163c4a11628f55a4df523b3ef929081900390910190a35050565b60005433600160a060020a03908116911614610b6357600080fd5b60005460a060020a900460ff161515610b7b57600080fd5b6000805474ff000000000000000000000000000000000000000019169055565b60008054819081908190819060a060020a900460ff1615610bbb57600080fd5b600160a060020a038916600090815260096020526040902054600360ff9091161015610be657600080fd5b600054600160a060020a038a811691161480610c13575088600160a060020a031633600160a060020a0316145b1515610c1e57600080fd5b600160a060020a038a16600090815260096020526040902054600360ff9091161015610c6857600160a060020a038a166000908152600960205260409020805460ff191660031790555b610c738a8989611637565b600160a060020a038a81166000908152600a6020526040902054161515610cd057600160a060020a038a81166000908152600a60205260409020805473ffffffffffffffffffffffffffffffffffffffff1916918b169190911790555b600160a060020a03808b166000908152600660209081526040808320600481015484549095168452600190925290912054909650610d139163ffffffff61162116565b60008054600160a060020a03908116825260016020908152604080842094909455600489018390558c82168352600a9052919020541693508315610e2457610d7a600e610d6e600488600501546117d390919063ffffffff16565b9063ffffffff6117fe16565b600160a060020a038516600090815260016020526040902054909350610da6908463ffffffff61162116565b600160a060020a0385166000908152600160205260409020556005850154610dd4908463ffffffff61160f16565b600586015560408051600160a060020a038087168252602082018690528c168183015290517f9524c3cc5b4505c929681e525b1b9316e10578c562bd6c8b5e66f21d5000f4569181900360600190a15b855191508115610e5057610e4b600a610d6e600688600501546117d390919063ffffffff16565b610e56565b84600501545b600160a060020a038a16600090815260016020526040902054909150610e82908263ffffffff61162116565b600160a060020a038a166000908152600160205260409020556005850154610eb0908263ffffffff61160f16565b600586015560408051600160a060020a03808c168252602082018490528c168183015290517f9524c3cc5b4505c929681e525b1b9316e10578c562bd6c8b5e66f21d5000f4569181900360600190a16000821115610f1357610f138a8388611815565b600160a060020a038a166000908152600160208181526040928390205491880154600289015460038a015460048b015460058c0154875196875294860193909352848601919091526060840152608083015260a082015290517ff9df41b10bd8526911c4a58f772636d9e5dd55eb2597cd1c11e0983be65dc9479181900360c00190a150505050505050505050565b60005460a060020a900460ff1615610fb957600080fd5b60005433600160a060020a03908116911614610fd457600080fd5b600160a060020a03821660009081526009602052604090205460ff808316911611801590611005575060058160ff16105b1561109357600160a060020a0382166000908152600960205260409020805460ff191660ff83169081179091556004141561109357600780546001810182556000919091527fa66cc928b5edb82af9bd49922954155ab7b0942694bea4ce44661d9a8736c68801805473ffffffffffffffffffffffffffffffffffffffff1916600160a060020a0384161790555b5050565b60005460a060020a900460ff1681565b600a60205260009081526040902054600160a060020a031681565b60008054819060a060020a900460ff16156110dc57600080fd5b635e0b708042116110ec57600080fd5b50600160a060020a033381166000908152600860209081526040808320938716835292905220548083111561114857600160a060020a03338116600090815260086020908152604080832093881683529290529081205561117f565b611158818463ffffffff61160f16565b600160a060020a033381166000908152600860209081526040808320938916835292905220555b600160a060020a0333811660008181526008602090815260408083209489168084529482529182902054825190815291517f8c5be1e5ebec7d5bd14f71427d1e84f3dd0314c0f7b2291e5b200ac8c7c3b9259281900390910190a3600191505b5092915050565b600160a060020a031660009081526001602052604090205490565b60005433600160a060020a0390811691161461121c57600080fd5b60005460a060020a900460ff161561123357600080fd5b6000805474ff0000000000000000000000000000000000000000191660a060020a179055565b655e96630e800081565b60408051808201909152600481527f4141435400000000000000000000000000000000000000000000000000000000602082015281565b60096020526000908152604090205460ff1681565b60008054819033600160a060020a039081169116146112cd57600080fd5b5060009050805b60045460ff8216101561132e578260ff1660048260ff168154811015156112f757fe5b60009182526020918290209181049091015460ff601f9092166101000a9004161415611326576001915061132e565b6001016112d4565b8115156113895760048054600181018255600091909152602081047f8a35acfbc15ff81a39ae7d344fd709f28e8600b4aa8c65c6b64bfe7fe36bd19b01805460ff808716601f9094166101000a938402930219169190911790555b505050565b6000805460a060020a900460ff16156113a657600080fd5b635e0b708042116113b657600080fd5b600160a060020a03831615156113cb57600080fd5b600160a060020a0333166000908152600160205260409020548211156113f057600080fd5b600160a060020a033316600090815260016020526040902054611419908363ffffffff61160f16565b600160a060020a03338116600090815260016020526040808220939093559085168152205461144e908363ffffffff61162116565b600160a060020a038085166000818152600160209081526040918290209490945580518681529051919333909316927fddf252ad1be2c89b69c2b068fc378daa952ba7f163c4a11628f55a4df523b3ef92918290030190a350600192915050565b60048054829081106114bd57fe5b9060005260206000209060209182820401919006915054906101000a900460ff1681565b60035490565b6000805460a060020a900460ff16156114ff57600080fd5b635e0b7080421161150f57600080fd5b600160a060020a03338116600090815260086020908152604080832093871683529290522054611545908363ffffffff61162116565b600160a060020a0333811660008181526008602090815260408083209489168084529482529182902085905581519485529051929391927f8c5be1e5ebec7d5bd14f71427d1e84f3dd0314c0f7b2291e5b200ac8c7c3b9259281900390910190a350600192915050565b600660205260009081526040902080546001820154600283015460038401546004850154600590950154939492939192909186565b600160a060020a03918216600090815260086020908152604080832093909416825291909152205490565b60008282111561161b57fe5b50900390565b60008282018381101561163057fe5b9392505050565b600160a060020a038316600090815260096020526040812054819081908190600360ff9091161161166757600080fd5b600254655e96630e80009087011061167e57600080fd5b600160a060020a038716600090815260016020526040902054600a600388020494506064600e88020493506116b39085611621565b600160a060020a038816600090815260016020908152604080832093909355600690522080549092506116ec908763ffffffff61162116565b82556001820154611703908463ffffffff61162116565b6001830155600282015461171d908463ffffffff61162116565b60028301556003820154611737908463ffffffff61162116565b60038301556004820154611751908463ffffffff61162116565b6004830155600582015461176b908463ffffffff61162116565b6005808401919091556002549084028501915061178e908263ffffffff61162116565b60025560ff85166000908152600560205260409020546117b4908263ffffffff61162116565b60ff909516600090815260056020526040902094909455505050505050565b6000808315156117e657600091506111df565b508282028284828115156117f657fe5b041461163057fe5b600080828481151561180c57fe5b04949350505050565b600160a060020a03831660009081526006602052604081206005810154909190819081908190879081151561184657fe5b04935060009250600091505b868260ff1610156119c957858260ff1681518110151561186e57fe5b6020908102909101810151600160a060020a03811660009081526009909252604090912054909150600260ff90911610156118c757600160a060020a0381166000908152600960205260409020805460ff191660021790555b61190f8460016000898660ff168151811015156118e057fe5b6020908102909101810151600160a060020a03168252810191909152604001600020549063ffffffff61162116565b60016000888560ff1681518110151561192457fe5b6020908102909101810151600160a060020a0316825281019190915260400160002055611957838563ffffffff61162116565b92507f9524c3cc5b4505c929681e525b1b9316e10578c562bd6c8b5e66f21d5000f456868360ff1681518110151561198b57fe5b602090810290910181015160408051600160a060020a039283168152928301889052908b1682820152519081900360600190a1600190910190611852565b60058501546119de908463ffffffff61160f16565b856005018190555050505050505050505600a165627a7a723058204c6bcda9cd196c69d454b9c5a027f9173f27e570994a29da6980279e2719a0fe0029",
  "source": "pragma solidity ^0.4.18;\r\n\r\n\r\nimport \"./BasicToken.sol\";\r\nimport \"./ERC20.sol\";\r\n\r\n\r\n/**\r\n * @title AACT token\r\n *\r\n * @dev https://github.com/ethereum/EIPs/issues/20\r\n */\r\ncontract AACT is ERC20, BasicToken {\r\n\r\n    string public constant name = \"\";\r\n    string public constant symbol = \"AACT\";\r\n    uint256 public constant TOTAL_SUPPLY = 104000000000000;\r\n    uint8 public constant decimals = 18;\r\n\r\n    uint256 totalSupply_;\r\n    // withdraw AACT amount\r\n    uint256 historySupply_;\r\n\r\n    // all supply types\r\n    uint8[] public supplyTypes;\r\n    // total supply for each type\r\n    mapping(uint8 => uint256) public supplys;\r\n\r\n    // structure for company\r\n    struct Company {\r\n        uint256 valuation;\r\n        uint256 taxAACT;\r\n        uint256 aipodAACT;\r\n        uint256 livelihoodAACT;\r\n        uint256 footstoneAACT;\r\n        uint256 salesmanAACT;\r\n    }\r\n\r\n    mapping(address => Company) public companys;\r\n\r\n    address[] public footstoneAccounts;\r\n\r\n    // events\r\n    // when a company's worth upload successfully\r\n    event CompanyWorthUpload(\r\n        uint256 balanceAACT,\r\n        uint256 taxAACT,\r\n        uint256 aipodAACT,\r\n        uint256 livelihoodAACT,\r\n        uint256 footstoneAACT,\r\n        uint256 salesmanAACT\r\n    );\r\n\r\n    // when someone gain AACT by helping a company upload its worth\r\n    event GainRewardFromCompany(\r\n        address rewardAddress,\r\n        uint256 rewardAACT,\r\n        address companyAddress\r\n    );\r\n\r\n    // when CEO withdraw someone's AACT\r\n    event WithdrawAACT(\r\n        address from,\r\n        uint256 amount\r\n    );\r\n\r\n    mapping (address => mapping (address => uint256)) internal allowed;\r\n    // @dev roles 5:super administrator, 4:footstoneMember, 3:company, 2:individual, 0:unregistered\r\n    mapping (address => uint8) public roles;\r\n    // @dev every company has a referee\r\n    mapping (address => address) public referees;\r\n\r\n    // @dev make sure msg.sender has registered\r\n    modifier registered() {\r\n        require(roles[msg.sender] > 0);\r\n        _;\r\n    }\r\n\r\n    // @dev consider roles of company or higher than company as an administrator\r\n    modifier onlyAdmin() {\r\n        require(roles[msg.sender] >= 3);\r\n        _;\r\n    }\r\n\r\n    /// @notice Creates the main AACT smart contract instance.\r\n    function AACT() public {\r\n        // Starts paused.\r\n        paused = true;\r\n        \r\n        // the creator of the contract is also the initial CEO\r\n        ceoAddress = msg.sender;\r\n        // CEO is the only one super administrator\r\n        roles[ceoAddress] = 5;\r\n\r\n        // 1 for legal money assets\r\n        supplyTypes.push(1);\r\n        // 2 for resource assets\r\n        supplyTypes.push(2);\r\n        // total supply AACT amount\r\n        totalSupply_ = 0;\r\n    }\r\n\r\n    /// @dev Allocate _amount AACT to _to a company\r\n    function allocateAACT2company(address _to, uint256 _amount, uint8 _supplyType) internal {\r\n        require(roles[_to] > 3);\r\n        require(totalSupply_ + _amount < TOTAL_SUPPLY);\r\n        // @notice the decimal value will be cut, thus the actual distributed AACT may be less than _amount\r\n        uint256 _30percent = 3 * _amount / 10;\r\n        uint256 _14percent = 14 * _amount / 100;\r\n        balances[_to] = balances[_to].add(_30percent);\r\n        Company storage comp = companys[_to];\r\n        comp.valuation = comp.valuation.add(_amount);\r\n        comp.taxAACT = comp.taxAACT.add(_14percent);\r\n        comp.aipodAACT = comp.aipodAACT.add(_14percent);\r\n        comp.livelihoodAACT = comp.livelihoodAACT.add(_14percent);\r\n        comp.footstoneAACT = comp.footstoneAACT.add(_14percent);\r\n        comp.salesmanAACT = comp.salesmanAACT.add(_14percent);\r\n        uint256 _totalSupply = _30percent + 5 * _14percent;\r\n        totalSupply_ = totalSupply_.add(_totalSupply);\r\n        supplys[_supplyType] = supplys[_supplyType].add(_totalSupply);\r\n    }\r\n\r\n    /**\r\n    * @dev CEO can transfer his AACT to anyone whenever\r\n    */\r\n    function transferAACT(address _to, uint256 _amount) public whenNotPaused onlyCEO {\r\n        require(balances[ceoAddress] >= _amount);\r\n        balances[ceoAddress] = balances[ceoAddress].sub(_amount);\r\n        balances[_to] = balances[_to].add(_amount);\r\n        emit Transfer(ceoAddress, _to, _amount);\r\n    }\r\n\r\n    /**\r\n    * @dev CEO has the privilege to withdraw someone's AACT\r\n    */\r\n    function withdrawAACT(address _from, uint256 _amount) public whenNotPaused onlyCEO {\r\n        require(balances[_from] >= _amount);\r\n        balances[_from] = balances[_from].sub(_amount);\r\n        historySupply_ = historySupply_.add(_amount);\r\n        emit WithdrawAACT(_from, _amount);\r\n    }\r\n\r\n    /**\r\n    * @dev set role of an address, only CEO has the privilege to invoke\r\n    * @param _new the new footstone member\r\n    * @param _role the role will be set\r\n    */\r\n    function setRole(address _new, uint8 _role) public whenNotPaused onlyCEO {\r\n        if (roles[_new] <= _role && _role < 5) {\r\n            roles[_new] = _role;\r\n            if (_role == 4) {\r\n                footstoneAccounts.push(_new);\r\n            }\r\n        }\r\n    }\r\n\r\n    /**\r\n    * @dev Upload a company's worth with some salesmen\r\n    * @param _new the new address which represents the company and need to be registered\r\n    * @param _referee the referee of _new company\r\n    * @param _valuation the total valuation of _new company\r\n    * @param _supplyType the supply type\r\n    * @param _salesmen salesmen who offer assistance to _new company for register\r\n    */\r\n    function uploadCompanyWorth(address _new, address _referee, uint256 _valuation, uint8 _supplyType, address[] _salesmen) public whenNotPaused {\r\n        // the _referee's role privilege must be higher than company\r\n        require(roles[_referee] >= 3);\r\n        // the _referee must be msg.sender or CEO\r\n        require(ceoAddress == _referee || msg.sender == _referee);\r\n        // elevate _new's role\r\n        if (roles[_new] < 3) {\r\n            roles[_new] = 3;\r\n        }\r\n        // distribute AACTs\r\n        allocateAACT2company(_new, _valuation, _supplyType);\r\n        // set referee if the company didn't has one\r\n        if (referees[_new] == address(0)) {\r\n            referees[_new] = _referee;\r\n        }\r\n        Company storage comp = companys[_new];\r\n        // transfer the footstone AACT to CEO account\r\n        balances[ceoAddress] = balances[ceoAddress].add(comp.footstoneAACT);\r\n        comp.footstoneAACT = 0;\r\n        // transfer the salesman AACT to referee\r\n        // first distribute the grandreferee part if the grandreferee exists\r\n        address grandReferee = referees[_referee];\r\n        if (grandReferee != address(0)) {\r\n            uint256 grandRefereeRebate = comp.salesmanAACT.mul(4).div(14);\r\n            balances[grandReferee] = balances[grandReferee].add(grandRefereeRebate);\r\n            comp.salesmanAACT = comp.salesmanAACT.sub(grandRefereeRebate);\r\n            emit GainRewardFromCompany(grandReferee, grandRefereeRebate, _new);\r\n        }\r\n        // and then, distribute the referee part\r\n        uint256 len = _salesmen.length;\r\n        uint256 refereeRebate = len == 0 ? comp.salesmanAACT : comp.salesmanAACT.mul(6).div(10);\r\n        balances[_referee] = balances[_referee].add(refereeRebate);\r\n        comp.salesmanAACT = comp.salesmanAACT.sub(refereeRebate);\r\n        emit GainRewardFromCompany(_referee, refereeRebate, _new);\r\n        // at last, distribute the salesmen part\r\n        if (len > 0) {\r\n            allocateSalemenAACT(_new, len, _salesmen);\r\n        }\r\n        // CompanyWorthUpload event\r\n        emit CompanyWorthUpload(balances[_new], comp.taxAACT, comp.aipodAACT, comp.livelihoodAACT, comp.footstoneAACT, comp.salesmanAACT);\r\n    }\r\n    \r\n    /**\r\n    * @dev calculate totalSupply by count supplys of each type\r\n    */\r\n    function allocateSalemenAACT(address _new, uint256 len, address[] _salesmen) internal {\r\n        Company storage comp = companys[_new];\r\n        uint256 perAACT = comp.salesmanAACT / len;\r\n        uint256 totalSalesmenAACT = 0;\r\n        for (uint8 i = 0; i < len; i++) {\r\n            address salesmanAddress = _salesmen[i];\r\n            if (roles[salesmanAddress] < 2) { // make sure salesman has registered\r\n                roles[salesmanAddress] = 2;\r\n            }\r\n            balances[_salesmen[i]] = balances[_salesmen[i]].add(perAACT);\r\n            totalSalesmenAACT = totalSalesmenAACT.add(perAACT);\r\n            emit GainRewardFromCompany(_salesmen[i], perAACT, _new);\r\n        }\r\n        comp.salesmanAACT = comp.salesmanAACT.sub(totalSalesmenAACT);\r\n    }\r\n\r\n    /**\r\n    * @dev return totalSupply_\r\n    */\r\n    function totalSupply() public view returns(uint256) {\r\n        return totalSupply_;\r\n    }\r\n\r\n    /**\r\n    * @dev return historySupply_\r\n    */\r\n    function historySupply() public view returns(uint256) {\r\n        return historySupply_;\r\n    }\r\n\r\n    /**\r\n    * @dev Add a new supply type\r\n    */\r\n    function addSupplyType(uint8 _newType) public onlyCEO {\r\n        bool typeExist = false;\r\n        for (uint8 i = 0; i < supplyTypes.length; i++) {\r\n            if (supplyTypes[i] == _newType) {\r\n                typeExist = true;\r\n                break;\r\n            }\r\n        }\r\n        if (!typeExist) {\r\n            supplyTypes.push(_newType);\r\n        }\r\n    }\r\n\r\n    /**\r\n    * @dev Transfer tokens from one address to another\r\n    * @param _from address The address which you want to send tokens from\r\n    * @param _to address The address which you want to transfer to\r\n    * @param _value uint256 the amount of tokens to be transferred\r\n    */\r\n    function transferFrom(address _from, address _to, uint256 _value) public whenNotPaused after2020 returns (bool) {\r\n        require(_to != address(0));\r\n        require(_value <= balances[_from]);\r\n        require(_value <= allowed[_from][msg.sender]);\r\n\r\n        balances[_from] = balances[_from].sub(_value);\r\n        balances[_to] = balances[_to].add(_value);\r\n        allowed[_from][msg.sender] = allowed[_from][msg.sender].sub(_value);\r\n        emit Transfer(_from, _to, _value);\r\n        return true;\r\n    }\r\n\r\n    /**\r\n    * @dev Approve the passed address to spend the specified amount of tokens on behalf of msg.sender.\r\n    *\r\n    * Beware that changing an allowance with this method brings the risk that someone may use both the old\r\n    * and the new allowance by unfortunate transaction ordering. One possible solution to mitigate this\r\n    * race condition is to first reduce the spender's allowance to 0 and set the desired value afterwards:\r\n    * https://github.com/ethereum/EIPs/issues/20#issuecomment-263524729\r\n    * @param _spender The address which will spend the funds.\r\n    * @param _value The amount of tokens to be spent.\r\n    */\r\n    function approve(address _spender, uint256 _value) public whenNotPaused after2020 returns (bool) {\r\n        allowed[msg.sender][_spender] = _value;\r\n        emit Approval(msg.sender, _spender, _value);\r\n        return true;\r\n    }\r\n\r\n    /**\r\n    * @dev Function to check the amount of tokens that an owner allowed to a spender.\r\n    * @param _owner address The address which owns the funds.\r\n    * @param _spender address The address which will spend the funds.\r\n    * @return A uint256 specifying the amount of tokens still available for the spender.\r\n    */\r\n    function allowance(address _owner, address _spender) public view returns (uint256) {\r\n        return allowed[_owner][_spender];\r\n    }\r\n\r\n    /**\r\n    * @dev Increase the amount of tokens that an owner allowed to a spender.\r\n    *\r\n    * approve should be called when allowed[_spender] == 0. To increment\r\n    * allowed value is better to use this function to avoid 2 calls (and wait until\r\n    * the first transaction is mined)\r\n    * From MonolithDAO Token.sol\r\n    * @param _spender The address which will spend the funds.\r\n    * @param _addedValue The amount of tokens to increase the allowance by.\r\n    */\r\n    function increaseApproval(address _spender, uint _addedValue) public whenNotPaused after2020 returns (bool) {\r\n        allowed[msg.sender][_spender] = allowed[msg.sender][_spender].add(_addedValue);\r\n        emit Approval(msg.sender, _spender, allowed[msg.sender][_spender]);\r\n        return true;\r\n    }\r\n\r\n    /**\r\n    * @dev Decrease the amount of tokens that an owner allowed to a spender.\r\n    *\r\n    * approve should be called when allowed[_spender] == 0. To decrement\r\n    * allowed value is better to use this function to avoid 2 calls (and wait until\r\n    * the first transaction is mined)\r\n    * From MonolithDAO Token.sol\r\n    * @param _spender The address which will spend the funds.\r\n    * @param _subtractedValue The amount of tokens to decrease the allowance by.\r\n    */\r\n    function decreaseApproval(address _spender, uint _subtractedValue) public whenNotPaused after2020 returns (bool) {\r\n        uint oldValue = allowed[msg.sender][_spender];\r\n        if (_subtractedValue > oldValue) {\r\n            allowed[msg.sender][_spender] = 0;\r\n        } else {\r\n            allowed[msg.sender][_spender] = oldValue.sub(_subtractedValue);\r\n        }\r\n        emit Approval(msg.sender, _spender, allowed[msg.sender][_spender]);\r\n        return true;\r\n    }\r\n}\r\n",
  "sourcePath": "C:\\project\\AACT\\contracts\\AACT.sol",
  "compiler": {
    "name": "solc",
    "version": "0.4.23+commit.124ca40d.Emscripten.clang"
  },
  "schemaVersion": "2.0.0",
  "updatedAt": "2018-05-24T03:47:03.940Z"
}