{
  "contractName": "AACT",
  "abi": [
    {
      "constant": true,
      "inputs": [],
      "name": "name",
      "outputs": [
        {
          "name": "",
          "type": "string"
        }
      ],
      "payable": false,
      "stateMutability": "view",
      "type": "function"
    },
    {
      "constant": true,
      "inputs": [
        {
          "name": "",
          "type": "uint256"
        }
      ],
      "name": "footstoneAccounts",
      "outputs": [
        {
          "name": "",
          "type": "address"
        }
      ],
      "payable": false,
      "stateMutability": "view",
      "type": "function"
    },
    {
      "constant": true,
      "inputs": [],
      "name": "ceoAddress",
      "outputs": [
        {
          "name": "",
          "type": "address"
        }
      ],
      "payable": false,
      "stateMutability": "view",
      "type": "function"
    },
    {
      "constant": true,
      "inputs": [],
      "name": "totalSupply",
      "outputs": [
        {
          "name": "",
          "type": "uint256"
        }
      ],
      "payable": false,
      "stateMutability": "view",
      "type": "function"
    },
    {
      "constant": false,
      "inputs": [
        {
          "name": "_newCEO",
          "type": "address"
        }
      ],
      "name": "setCEO",
      "outputs": [],
      "payable": false,
      "stateMutability": "nonpayable",
      "type": "function"
    },
    {
      "constant": true,
      "inputs": [],
      "name": "INITIAL_SUPPLY",
      "outputs": [
        {
          "name": "",
          "type": "uint256"
        }
      ],
      "payable": false,
      "stateMutability": "view",
      "type": "function"
    },
    {
      "constant": true,
      "inputs": [],
      "name": "decimals",
      "outputs": [
        {
          "name": "",
          "type": "uint8"
        }
      ],
      "payable": false,
      "stateMutability": "view",
      "type": "function"
    },
    {
      "constant": false,
      "inputs": [],
      "name": "unpause",
      "outputs": [],
      "payable": false,
      "stateMutability": "nonpayable",
      "type": "function"
    },
    {
      "constant": true,
      "inputs": [],
      "name": "totalFootstoneAACT",
      "outputs": [
        {
          "name": "",
          "type": "uint256"
        }
      ],
      "payable": false,
      "stateMutability": "view",
      "type": "function"
    },
    {
      "constant": true,
      "inputs": [],
      "name": "paused",
      "outputs": [
        {
          "name": "",
          "type": "bool"
        }
      ],
      "payable": false,
      "stateMutability": "view",
      "type": "function"
    },
    {
      "constant": true,
      "inputs": [
        {
          "name": "",
          "type": "address"
        }
      ],
      "name": "referees",
      "outputs": [
        {
          "name": "",
          "type": "address"
        }
      ],
      "payable": false,
      "stateMutability": "view",
      "type": "function"
    },
    {
      "constant": true,
      "inputs": [
        {
          "name": "_owner",
          "type": "address"
        }
      ],
      "name": "balanceOf",
      "outputs": [
        {
          "name": "balance",
          "type": "uint256"
        }
      ],
      "payable": false,
      "stateMutability": "view",
      "type": "function"
    },
    {
      "constant": false,
      "inputs": [],
      "name": "pause",
      "outputs": [],
      "payable": false,
      "stateMutability": "nonpayable",
      "type": "function"
    },
    {
      "constant": true,
      "inputs": [],
      "name": "symbol",
      "outputs": [
        {
          "name": "",
          "type": "string"
        }
      ],
      "payable": false,
      "stateMutability": "view",
      "type": "function"
    },
    {
      "constant": true,
      "inputs": [
        {
          "name": "",
          "type": "address"
        }
      ],
      "name": "roles",
      "outputs": [
        {
          "name": "",
          "type": "uint8"
        }
      ],
      "payable": false,
      "stateMutability": "view",
      "type": "function"
    },
    {
      "constant": false,
      "inputs": [
        {
          "name": "_to",
          "type": "address"
        },
        {
          "name": "_value",
          "type": "uint256"
        }
      ],
      "name": "transfer",
      "outputs": [
        {
          "name": "",
          "type": "bool"
        }
      ],
      "payable": false,
      "stateMutability": "nonpayable",
      "type": "function"
    },
    {
      "constant": true,
      "inputs": [
        {
          "name": "",
          "type": "address"
        }
      ],
      "name": "companys",
      "outputs": [
        {
          "name": "valuation",
          "type": "uint256"
        },
        {
          "name": "taxAACT",
          "type": "uint256"
        },
        {
          "name": "aipodAACT",
          "type": "uint256"
        },
        {
          "name": "livelihoodAACT",
          "type": "uint256"
        },
        {
          "name": "footstoneAACT",
          "type": "uint256"
        },
        {
          "name": "salesmanAACT",
          "type": "uint256"
        }
      ],
      "payable": false,
      "stateMutability": "view",
      "type": "function"
    },
    {
      "inputs": [],
      "payable": false,
      "stateMutability": "nonpayable",
      "type": "constructor"
    },
    {
      "anonymous": false,
      "inputs": [
        {
          "indexed": false,
          "name": "balanceAACT",
          "type": "uint256"
        },
        {
          "indexed": false,
          "name": "taxAACT",
          "type": "uint256"
        },
        {
          "indexed": false,
          "name": "aipodAACT",
          "type": "uint256"
        },
        {
          "indexed": false,
          "name": "livelihoodAACT",
          "type": "uint256"
        },
        {
          "indexed": false,
          "name": "footstoneAACT",
          "type": "uint256"
        },
        {
          "indexed": false,
          "name": "salesmanAACT",
          "type": "uint256"
        }
      ],
      "name": "CompanyRegister",
      "type": "event"
    },
    {
      "anonymous": false,
      "inputs": [
        {
          "indexed": false,
          "name": "_new",
          "type": "address"
        }
      ],
      "name": "FootstoneRegister",
      "type": "event"
    },
    {
      "anonymous": false,
      "inputs": [
        {
          "indexed": false,
          "name": "from",
          "type": "address"
        },
        {
          "indexed": false,
          "name": "amount",
          "type": "uint256"
        }
      ],
      "name": "WithdrawAACT",
      "type": "event"
    },
    {
      "anonymous": false,
      "inputs": [
        {
          "indexed": true,
          "name": "owner",
          "type": "address"
        },
        {
          "indexed": true,
          "name": "spender",
          "type": "address"
        },
        {
          "indexed": false,
          "name": "value",
          "type": "uint256"
        }
      ],
      "name": "Approval",
      "type": "event"
    },
    {
      "anonymous": false,
      "inputs": [
        {
          "indexed": true,
          "name": "from",
          "type": "address"
        },
        {
          "indexed": true,
          "name": "to",
          "type": "address"
        },
        {
          "indexed": false,
          "name": "value",
          "type": "uint256"
        }
      ],
      "name": "Transfer",
      "type": "event"
    },
    {
      "constant": true,
      "inputs": [],
      "name": "getCurrentExchangeRate2rmb",
      "outputs": [
        {
          "name": "",
          "type": "uint256"
        }
      ],
      "payable": false,
      "stateMutability": "view",
      "type": "function"
    },
    {
      "constant": false,
      "inputs": [
        {
          "name": "_from",
          "type": "address"
        },
        {
          "name": "_amount",
          "type": "uint256"
        }
      ],
      "name": "withdrawAACT",
      "outputs": [],
      "payable": false,
      "stateMutability": "nonpayable",
      "type": "function"
    },
    {
      "constant": false,
      "inputs": [
        {
          "name": "_new",
          "type": "address"
        }
      ],
      "name": "registerFootstoneMember",
      "outputs": [],
      "payable": false,
      "stateMutability": "nonpayable",
      "type": "function"
    },
    {
      "constant": false,
      "inputs": [
        {
          "name": "_new",
          "type": "address"
        },
        {
          "name": "_valuation",
          "type": "uint256"
        },
        {
          "name": "_salesmen",
          "type": "address[]"
        }
      ],
      "name": "registerCompany",
      "outputs": [],
      "payable": false,
      "stateMutability": "nonpayable",
      "type": "function"
    },
    {
      "constant": false,
      "inputs": [
        {
          "name": "_from",
          "type": "address"
        },
        {
          "name": "_to",
          "type": "address"
        },
        {
          "name": "_value",
          "type": "uint256"
        }
      ],
      "name": "transferFrom",
      "outputs": [
        {
          "name": "",
          "type": "bool"
        }
      ],
      "payable": false,
      "stateMutability": "nonpayable",
      "type": "function"
    },
    {
      "constant": false,
      "inputs": [
        {
          "name": "_spender",
          "type": "address"
        },
        {
          "name": "_value",
          "type": "uint256"
        }
      ],
      "name": "approve",
      "outputs": [
        {
          "name": "",
          "type": "bool"
        }
      ],
      "payable": false,
      "stateMutability": "nonpayable",
      "type": "function"
    },
    {
      "constant": true,
      "inputs": [
        {
          "name": "_owner",
          "type": "address"
        },
        {
          "name": "_spender",
          "type": "address"
        }
      ],
      "name": "allowance",
      "outputs": [
        {
          "name": "",
          "type": "uint256"
        }
      ],
      "payable": false,
      "stateMutability": "view",
      "type": "function"
    },
    {
      "constant": false,
      "inputs": [
        {
          "name": "_spender",
          "type": "address"
        },
        {
          "name": "_addedValue",
          "type": "uint256"
        }
      ],
      "name": "increaseApproval",
      "outputs": [
        {
          "name": "",
          "type": "bool"
        }
      ],
      "payable": false,
      "stateMutability": "nonpayable",
      "type": "function"
    },
    {
      "constant": false,
      "inputs": [
        {
          "name": "_spender",
          "type": "address"
        },
        {
          "name": "_subtractedValue",
          "type": "uint256"
        }
      ],
      "name": "decreaseApproval",
      "outputs": [
        {
          "name": "",
          "type": "bool"
        }
      ],
      "payable": false,
      "stateMutability": "nonpayable",
      "type": "function"
    }
  ],
  "bytecode": "0x60606040526000805460a060020a60ff0219169055341561001f57600080fd5b60008054600160a060020a03338116600160a060020a031960a060020a60ff021990931674010000000000000000000000000000000000000000179290921691909117808355168152600760205260409020805460ff19166005179055655e96630e8000600255611565806100956000396000f3006060604052600436106101535763ffffffff7c0100000000000000000000000000000000000000000000000000000000600035041663023c9a4c811461015857806306fdde031461017d57806307f177a914610207578063095ea7b3146102395780630a0f81681461026f5780630b0493fb1461028257806313836bb1146102a657806318160ddd1461030957806323b872dd1461031c57806327d7874c146103445780632d538276146103635780632ff2e9dc14610382578063313ce567146103955780633f4ba83a146103be578063477c11b7146103d15780635c975abb146103e457806364a60b47146103f7578063661884631461041657806370a08231146104385780638456cb591461045757806395d89b411461046a578063993746421461047d578063a9059cbb1461049c578063d73dd623146104be578063db047c77146104e0578063dd62ed3e14610538575b600080fd5b341561016357600080fd5b61016b61055d565b60405190815260200160405180910390f35b341561018857600080fd5b61019061058c565b60405160208082528190810183818151815260200191508051906020019080838360005b838110156101cc5780820151838201526020016101b4565b50505050905090810190601f1680156101f95780820380516001836020036101000a031916815260200191505b509250505060405180910390f35b341561021257600080fd5b61021d6004356105c3565b604051600160a060020a03909116815260200160405180910390f35b341561024457600080fd5b61025b600160a060020a03600435166024356105eb565b604051901515815260200160405180910390f35b341561027a57600080fd5b61021d61067c565b341561028d57600080fd5b6102a4600160a060020a036004351660243561068b565b005b34156102b157600080fd5b6102a460048035600160a060020a031690602480359190606490604435908101908301358060208082020160405190810160405280939291908181526020018383602002808284375094965061078395505050505050565b341561031457600080fd5b61016b610bd8565b341561032757600080fd5b61025b600160a060020a0360043581169060243516604435610bde565b341561034f57600080fd5b6102a4600160a060020a0360043516610d86565b341561036e57600080fd5b6102a4600160a060020a0360043516610de5565b341561038d57600080fd5b61016b610ee4565b34156103a057600080fd5b6103a8610eee565b60405160ff909116815260200160405180910390f35b34156103c957600080fd5b6102a4610ef3565b34156103dc57600080fd5b61016b610f46565b34156103ef57600080fd5b61025b610f4c565b341561040257600080fd5b61021d600160a060020a0360043516610f5c565b341561042157600080fd5b61025b600160a060020a0360043516602435610f77565b341561044357600080fd5b61016b600160a060020a036004351661109c565b341561046257600080fd5b6102a46110b7565b341561047557600080fd5b61019061110f565b341561048857600080fd5b6103a8600160a060020a0360043516611146565b34156104a757600080fd5b61025b600160a060020a036004351660243561115b565b34156104c957600080fd5b61025b600160a060020a036004351660243561127c565b34156104eb57600080fd5b6104ff600160a060020a0360043516611346565b60405180878152602001868152602001858152602001848152602001838152602001828152602001965050505050505060405180910390f35b341561054357600080fd5b61016b600160a060020a036004358116906024351661137b565b6000655e96630e8000600254655e96630e8000036305e69ec00281151561058057fe5b04620f42400190505b90565b60408051908101604052600c81527fe9be99e8b49de5a49ae5a49a0000000000000000000000000000000000000000602082015281565b60058054829081106105d157fe5b600091825260209091200154600160a060020a0316905081565b6000805460a060020a900460ff161561060357600080fd5b635e0b7080421161061357600080fd5b600160a060020a03338116600081815260066020908152604080832094881680845294909152908190208590557f8c5be1e5ebec7d5bd14f71427d1e84f3dd0314c0f7b2291e5b200ac8c7c3b9259085905190815260200160405180910390a350600192915050565b600054600160a060020a031681565b60005460a060020a900460ff16156106a257600080fd5b60005433600160a060020a039081169116146106bd57600080fd5b600160a060020a038216600090815260016020526040902054819010156106e357600080fd5b600160a060020a03821660009081526001602052604090205461070c908263ffffffff6113a616565b600160a060020a038316600090815260016020526040902055600254610738908263ffffffff6113b816565b6002557f8f7a51ecf866418f2bd713532e1e833136345044a2906d32ec351b85f55fe3a98282604051600160a060020a03909216825260208201526040908101905180910390a15050565b600080600080600080600080600080600060149054906101000a900460ff161515156107ae57600080fd5b600160a060020a033316600090815260076020526040902054600360ff90911610156107d957600080fd5b600160a060020a038d16600090815260076020526040902054339a5060ff161561080257600080fd5b600160a060020a038a16600090815260076020526040902054600360ff909116101561082d57600080fd5b600160a060020a038d166000908152600760205260409020805460ff1916600317905561085a8d8d6113ce565b600160a060020a038d81166000908152600860209081526040808320805473ffffffffffffffffffffffffffffffffffffffff1916948f169490941790935560049081905291902090810154600354919a506108b691906113b8565b600355600060048a01819055600160a060020a03808c1682526008602052604090912054169750871561096c5761090c600e61090060048c600501546114b090919063ffffffff16565b9063ffffffff6114db16565b600160a060020a038916600090815260016020526040902054909750610938908863ffffffff6113b816565b600160a060020a0389166000908152600160205260409020556005890154610966908863ffffffff6113a616565b60058a01555b8a519550851561099857610993600a61090060068c600501546114b090919063ffffffff16565b61099e565b88600501545b600160a060020a038b166000908152600160205260409020549095506109ca908663ffffffff6113b816565b600160a060020a038b1660009081526001602052604090205560058901546109f8908663ffffffff6113a616565b60058a01556000861115610b3c57858960050154811515610a1557fe5b04935060009250600091505b85821015610b21578a8281518110610a3557fe5b90602001906020020151600160a060020a038116600090815260076020526040902054909150600260ff9091161015610a8c57600160a060020a0381166000908152600760205260409020805460ff191660021790555b610ad084600160008e8681518110610aa057fe5b90602001906020020151600160a060020a031681526020810191909152604001600020549063ffffffff6113b816565b600160008d8581518110610ae057fe5b90602001906020020151600160a060020a03168152602081019190915260400160002055610b14838563ffffffff6113b816565b9250600190910190610a21565b6005890154610b36908463ffffffff6113a616565b60058a01555b600160a060020a038d1660009081526001602081905260409182902054908b015460028c015460038d015460048e015460058f01547feffd9266bfc67dfe6cfe0a7bb1314f79a903d0b9d452e161c148afc074faac6b965180878152602001868152602001858152602001848152602001838152602001828152602001965050505050505060405180910390a150505050505050505050505050565b60025490565b6000805460a060020a900460ff1615610bf657600080fd5b635e0b70804211610c0657600080fd5b600160a060020a0383161515610c1b57600080fd5b600160a060020a038416600090815260016020526040902054821115610c4057600080fd5b600160a060020a0380851660009081526006602090815260408083203390941683529290522054821115610c7357600080fd5b600160a060020a038416600090815260016020526040902054610c9c908363ffffffff6113a616565b600160a060020a038086166000908152600160205260408082209390935590851681522054610cd1908363ffffffff6113b816565b600160a060020a03808516600090815260016020908152604080832094909455878316825260068152838220339093168252919091522054610d19908363ffffffff6113a616565b600160a060020a03808616600081815260066020908152604080832033861684529091529081902093909355908516917fddf252ad1be2c89b69c2b068fc378daa952ba7f163c4a11628f55a4df523b3ef9085905190815260200160405180910390a35060019392505050565b60005433600160a060020a03908116911614610da157600080fd5b600160a060020a0381161515610db657600080fd5b6000805473ffffffffffffffffffffffffffffffffffffffff1916600160a060020a0392909216919091179055565b60005460a060020a900460ff1615610dfc57600080fd5b60005433600160a060020a03908116911614610e1757600080fd5b600160a060020a03811660009081526007602052604090205460ff1615610e3d57600080fd5b600160a060020a0381166000908152600760205260409020805460ff191660041790556005805460018101610e7283826114f2565b506000918252602090912001805473ffffffffffffffffffffffffffffffffffffffff1916600160a060020a0383161790557f3cd2fab4b1fe69edb77300c7cd3d51d882dd9bbbfbe7f949439873aee9cd153381604051600160a060020a03909116815260200160405180910390a150565b655e96630e800081565b601281565b60005433600160a060020a03908116911614610f0e57600080fd5b60005460a060020a900460ff161515610f2657600080fd5b6000805474ff000000000000000000000000000000000000000019169055565b60035481565b60005460a060020a900460ff1681565b600860205260009081526040902054600160a060020a031681565b60008054819060a060020a900460ff1615610f9157600080fd5b635e0b70804211610fa157600080fd5b50600160a060020a0333811660009081526006602090815260408083209387168352929052205480831115610ffd57600160a060020a033381166000908152600660209081526040808320938816835292905290812055611034565b61100d818463ffffffff6113a616565b600160a060020a033381166000908152600660209081526040808320938916835292905220555b600160a060020a0333811660008181526006602090815260408083209489168084529490915290819020547f8c5be1e5ebec7d5bd14f71427d1e84f3dd0314c0f7b2291e5b200ac8c7c3b925915190815260200160405180910390a3600191505b5092915050565b600160a060020a031660009081526001602052604090205490565b60005433600160a060020a039081169116146110d257600080fd5b60005460a060020a900460ff16156110e957600080fd5b6000805474ff0000000000000000000000000000000000000000191660a060020a179055565b60408051908101604052600481527f4141435400000000000000000000000000000000000000000000000000000000602082015281565b60076020526000908152604090205460ff1681565b6000805460a060020a900460ff161561117357600080fd5b635e0b7080421161118357600080fd5b600160a060020a038316151561119857600080fd5b600160a060020a0333166000908152600160205260409020548211156111bd57600080fd5b600160a060020a0333166000908152600160205260409020546111e6908363ffffffff6113a616565b600160a060020a03338116600090815260016020526040808220939093559085168152205461121b908363ffffffff6113b816565b600160a060020a0380851660008181526001602052604090819020939093559133909116907fddf252ad1be2c89b69c2b068fc378daa952ba7f163c4a11628f55a4df523b3ef9085905190815260200160405180910390a350600192915050565b6000805460a060020a900460ff161561129457600080fd5b635e0b708042116112a457600080fd5b600160a060020a033381166000908152600660209081526040808320938716835292905220546112da908363ffffffff6113b816565b600160a060020a0333811660008181526006602090815260408083209489168084529490915290819020849055919290917f8c5be1e5ebec7d5bd14f71427d1e84f3dd0314c0f7b2291e5b200ac8c7c3b92591905190815260200160405180910390a350600192915050565b600460208190526000918252604090912080546001820154600283015460038401549484015460059094015492949193909286565b600160a060020a03918216600090815260066020908152604080832093909416825291909152205490565b6000828211156113b257fe5b50900390565b6000828201838110156113c757fe5b9392505050565b600160a060020a0382166000908152600760205260408120548190819060ff166003146113fa57600080fd5b6002548490101561140a57600080fd5b600160a060020a038516600090815260016020526040902054600a600386020493506064600e860204925061143f90846113b8565b600160a060020a03861660009081526001602081815260408084209490945560049081905292909120868155908101849055600280820185905560038201859055918101849055600580820185905591549092506114a6918402850163ffffffff6113a616565b6002555050505050565b6000808315156114c35760009150611095565b508282028284828115156114d357fe5b04146113c757fe5b60008082848115156114e957fe5b04949350505050565b8154818355818115116115165760008381526020902061151691810190830161151b565b505050565b61058991905b808211156115355760008155600101611521565b50905600a165627a7a72305820583f0739efad590c3815d1584d6fd527c2204b45ccea140a13f15599ce4439900029",
  "source": "pragma solidity ^0.4.18;\r\n\r\n\r\nimport \"./BasicToken.sol\";\r\nimport \"./ERC20.sol\";\r\n\r\n\r\n/**\r\n * @title AACT token\r\n *\r\n * @dev https://github.com/ethereum/EIPs/issues/20\r\n */\r\ncontract AACT is ERC20, BasicToken {\r\n\r\n    string public constant name = \"龙贝多多\";\r\n    string public constant symbol = \"AACT\";\r\n    uint256 public constant INITIAL_SUPPLY = 104000000000000;\r\n    uint8 public constant decimals = 18;\r\n\r\n    uint256 public totalFootstoneAACT;\r\n    // structure for company\r\n    struct Company {\r\n        uint256 valuation;\r\n        uint256 taxAACT;\r\n        uint256 aipodAACT;\r\n        uint256 livelihoodAACT;\r\n        uint256 footstoneAACT;\r\n        uint256 salesmanAACT;\r\n    }\r\n\r\n    mapping(address => Company) public companys;\r\n    // 4 main pool\r\n    address[] public footstoneAccounts;\r\n\r\n    // events\r\n    // when a company register successfully\r\n    event CompanyRegister(\r\n        uint256 balanceAACT,\r\n        uint256 taxAACT,\r\n        uint256 aipodAACT,\r\n        uint256 livelihoodAACT,\r\n        uint256 footstoneAACT,\r\n        uint256 salesmanAACT\r\n    );\r\n    // when a footstone member register successfully\r\n    event FootstoneRegister(\r\n        address _new\r\n    );\r\n    // when CEO withdraw someone's AACT\r\n    event WithdrawAACT(\r\n        address from,\r\n        uint256 amount\r\n    );\r\n\r\n    mapping (address => mapping (address => uint256)) internal allowed;\r\n    // @dev roles 5:super administrator, 4:footstoneMember, 3:company, 2:individual, 0:unregistered\r\n    mapping (address => uint8) public roles;\r\n    // @dev every company has a referee\r\n    mapping (address => address) public referees;\r\n\r\n    // @dev make sure msg.sender has registered\r\n    modifier registered() {\r\n        require(roles[msg.sender] > 0);\r\n        _;\r\n    }\r\n\r\n    // @dev consider roles of company or higher than company as an administrator\r\n    modifier isAdministrator() {\r\n        require(roles[msg.sender] >= 3);\r\n        _;\r\n    }\r\n\r\n    /// @notice Creates the main AACT smart contract instance.\r\n    function AACT() public {\r\n        // Starts paused.\r\n        paused = true;\r\n        \r\n        // the creator of the contract is also the initial CEO\r\n        ceoAddress = msg.sender;\r\n        // CEO is the only one super administrator\r\n        roles[ceoAddress] = 5;\r\n\r\n        totalSupply_ = INITIAL_SUPPLY;\r\n    }\r\n\r\n    // the exchange rate will be adjust according to the totalSupply_\r\n    // @notice the return value x, means that the exchange rate between AACT and rmb is 1 : x/1000000\r\n    function getCurrentExchangeRate2rmb() public view returns(uint256) {\r\n        return 1000000 + 99000000 * (INITIAL_SUPPLY - totalSupply_) / INITIAL_SUPPLY;\r\n    }\r\n\r\n    /// @dev Distribute _amount AACT to _to address\r\n    function distributeAACT2address(address _to, uint256 _amount) internal {\r\n        require(totalSupply_ >= _amount);\r\n        balances[_to] = balances[_to].add(_amount);\r\n        totalSupply_ = totalSupply_.sub(_amount);\r\n    }\r\n\r\n    /// @dev Distribute _amount AACT to _to a company\r\n    function distributeAACT2company(address _to, uint256 _amount) internal {\r\n        require(roles[_to] == 3);\r\n        require(totalSupply_ >= _amount);\r\n        // @notice the decimal value will be cut, thus the actual distributed AACT may be less than _amount\r\n        uint256 _30percent = 3 * _amount / 10;\r\n        uint256 _14percent = 14 * _amount / 100;\r\n        balances[_to] = balances[_to].add(_30percent);\r\n        Company storage comp = companys[_to];\r\n        comp.valuation = _amount;\r\n        comp.taxAACT = _14percent;\r\n        comp.aipodAACT = _14percent;\r\n        comp.livelihoodAACT = _14percent;\r\n        comp.footstoneAACT = _14percent;\r\n        comp.salesmanAACT = _14percent;\r\n        totalSupply_ = totalSupply_.sub(_30percent + 5 * _14percent);\r\n    }\r\n\r\n    /**\r\n    * @dev CEO has the privilege to withdraw someone's AACT\r\n    */\r\n    function withdrawAACT(address _from, uint256 _amount) public whenNotPaused onlyCEO {\r\n        require(balances[_from] >= _amount);\r\n        balances[_from] = balances[_from].sub(_amount);\r\n        totalSupply_ = totalSupply_.add(_amount);\r\n        emit WithdrawAACT(_from, _amount);\r\n    }\r\n\r\n    /**\r\n    * @dev Register a footstone member address, only CEO has the privilege to invoke\r\n    * @param _new the new footstone member\r\n    */\r\n    function registerFootstoneMember(address _new) public whenNotPaused onlyCEO {\r\n        // @check does the _new need to be unregistered?\r\n        // @check if need to recode CEO as the referee of _new?\r\n        require(roles[_new] == 0);\r\n        roles[_new] = 4;\r\n        footstoneAccounts.push(_new);\r\n        emit FootstoneRegister(_new);\r\n    }\r\n    /**\r\n    * @dev Register a company address with a salesman, only administrator has the privilege to invoke\r\n    * @param _new the new address which represents the company and need to be registered\r\n    * @param _valuation the total valuation of _new company\r\n    * @param _salesmen salesmen who offer assistance to _new company for register\r\n    */\r\n    function registerCompany(address _new, uint256 _valuation, address[] _salesmen) public whenNotPaused isAdministrator {\r\n        // consider the message sender as the referee\r\n        address _referee = msg.sender;\r\n        // the _new must hasn't registered\r\n        require(roles[_new] == 0);\r\n        // the _referee's role privilege must be higher than company\r\n        require(roles[_referee] >= 3);\r\n        // create new Company\r\n        roles[_new] = 3;\r\n        // distribute AACTs\r\n        distributeAACT2company(_new, _valuation);\r\n        // set referee\r\n        referees[_new] = _referee;\r\n        Company storage comp = companys[_new];\r\n        // transfer the footstone AACT to totalFootstoneAACT\r\n        totalFootstoneAACT = totalFootstoneAACT.add(comp.footstoneAACT);\r\n        comp.footstoneAACT = 0;\r\n        // todo: transfer the salesman AACT to referee\r\n        // first distribute the grandreferee part if the grandreferee exists\r\n        address grandReferee = referees[_referee];\r\n        if (grandReferee != address(0)) {\r\n            uint256 grandRefereeRebate = comp.salesmanAACT.mul(4).div(14);\r\n            balances[grandReferee] = balances[grandReferee].add(grandRefereeRebate);\r\n            comp.salesmanAACT = comp.salesmanAACT.sub(grandRefereeRebate);\r\n        }\r\n        // and then, distribute the referee part\r\n        uint256 len = _salesmen.length;\r\n        uint256 refereeRebate = len == 0 ? comp.salesmanAACT : comp.salesmanAACT.mul(6).div(10);\r\n        balances[_referee] = balances[_referee].add(refereeRebate);\r\n        comp.salesmanAACT = comp.salesmanAACT.sub(refereeRebate);\r\n        // at last, distribute the salesmen part\r\n        if (len > 0) {\r\n            uint256 perAACT = comp.salesmanAACT / len;\r\n            uint256 totalSalesmenAACT = 0;\r\n            for (uint256 i = 0; i < len; i++) {\r\n                address salesmanAddress = _salesmen[i];\r\n                if (roles[salesmanAddress] < 2) { // make sure salesman has registered\r\n                    roles[salesmanAddress] = 2;\r\n                }\r\n                balances[_salesmen[i]] = balances[_salesmen[i]].add(perAACT);\r\n                totalSalesmenAACT = totalSalesmenAACT.add(perAACT);\r\n            }\r\n            comp.salesmanAACT = comp.salesmanAACT.sub(totalSalesmenAACT);\r\n        }\r\n        // CompanyRegister event\r\n        emit CompanyRegister(balances[_new], comp.taxAACT, comp.aipodAACT, comp.livelihoodAACT, comp.footstoneAACT, comp.salesmanAACT);\r\n    }\r\n\r\n    /**\r\n    * @dev Transfer tokens from one address to another\r\n    * @param _from address The address which you want to send tokens from\r\n    * @param _to address The address which you want to transfer to\r\n    * @param _value uint256 the amount of tokens to be transferred\r\n    */\r\n    function transferFrom(address _from, address _to, uint256 _value) public whenNotPaused after2020 returns (bool) {\r\n        require(_to != address(0));\r\n        require(_value <= balances[_from]);\r\n        require(_value <= allowed[_from][msg.sender]);\r\n\r\n        balances[_from] = balances[_from].sub(_value);\r\n        balances[_to] = balances[_to].add(_value);\r\n        allowed[_from][msg.sender] = allowed[_from][msg.sender].sub(_value);\r\n        emit Transfer(_from, _to, _value);\r\n        return true;\r\n    }\r\n\r\n    /**\r\n    * @dev Approve the passed address to spend the specified amount of tokens on behalf of msg.sender.\r\n    *\r\n    * Beware that changing an allowance with this method brings the risk that someone may use both the old\r\n    * and the new allowance by unfortunate transaction ordering. One possible solution to mitigate this\r\n    * race condition is to first reduce the spender's allowance to 0 and set the desired value afterwards:\r\n    * https://github.com/ethereum/EIPs/issues/20#issuecomment-263524729\r\n    * @param _spender The address which will spend the funds.\r\n    * @param _value The amount of tokens to be spent.\r\n    */\r\n    function approve(address _spender, uint256 _value) public whenNotPaused after2020 returns (bool) {\r\n        allowed[msg.sender][_spender] = _value;\r\n        emit Approval(msg.sender, _spender, _value);\r\n        return true;\r\n    }\r\n\r\n    /**\r\n    * @dev Function to check the amount of tokens that an owner allowed to a spender.\r\n    * @param _owner address The address which owns the funds.\r\n    * @param _spender address The address which will spend the funds.\r\n    * @return A uint256 specifying the amount of tokens still available for the spender.\r\n    */\r\n    function allowance(address _owner, address _spender) public view returns (uint256) {\r\n        return allowed[_owner][_spender];\r\n    }\r\n\r\n    /**\r\n    * @dev Increase the amount of tokens that an owner allowed to a spender.\r\n    *\r\n    * approve should be called when allowed[_spender] == 0. To increment\r\n    * allowed value is better to use this function to avoid 2 calls (and wait until\r\n    * the first transaction is mined)\r\n    * From MonolithDAO Token.sol\r\n    * @param _spender The address which will spend the funds.\r\n    * @param _addedValue The amount of tokens to increase the allowance by.\r\n    */\r\n    function increaseApproval(address _spender, uint _addedValue) public whenNotPaused after2020 returns (bool) {\r\n        allowed[msg.sender][_spender] = allowed[msg.sender][_spender].add(_addedValue);\r\n        emit Approval(msg.sender, _spender, allowed[msg.sender][_spender]);\r\n        return true;\r\n    }\r\n\r\n    /**\r\n    * @dev Decrease the amount of tokens that an owner allowed to a spender.\r\n    *\r\n    * approve should be called when allowed[_spender] == 0. To decrement\r\n    * allowed value is better to use this function to avoid 2 calls (and wait until\r\n    * the first transaction is mined)\r\n    * From MonolithDAO Token.sol\r\n    * @param _spender The address which will spend the funds.\r\n    * @param _subtractedValue The amount of tokens to decrease the allowance by.\r\n    */\r\n    function decreaseApproval(address _spender, uint _subtractedValue) public whenNotPaused after2020 returns (bool) {\r\n        uint oldValue = allowed[msg.sender][_spender];\r\n        if (_subtractedValue > oldValue) {\r\n            allowed[msg.sender][_spender] = 0;\r\n        } else {\r\n            allowed[msg.sender][_spender] = oldValue.sub(_subtractedValue);\r\n        }\r\n        emit Approval(msg.sender, _spender, allowed[msg.sender][_spender]);\r\n        return true;\r\n    }\r\n}\r\n",
  "sourcePath": "C:\\project\\AACT\\contracts\\AACT.sol",
  "compiler": {
    "name": "solc",
    "version": "0.4.21+commit.dfe3193c.Emscripten.clang"
  },
  "schemaVersion": "2.0.0",
  "updatedAt": "2018-04-24T08:38:07.398Z"
}