{
  "contractName": "AACT",
  "abi": [
    {
      "constant": true,
      "inputs": [],
      "name": "name",
      "outputs": [
        {
          "name": "",
          "type": "string"
        }
      ],
      "payable": false,
      "stateMutability": "view",
      "type": "function"
    },
    {
      "constant": true,
      "inputs": [
        {
          "name": "",
          "type": "uint256"
        }
      ],
      "name": "footstoneAccounts",
      "outputs": [
        {
          "name": "",
          "type": "address"
        }
      ],
      "payable": false,
      "stateMutability": "view",
      "type": "function"
    },
    {
      "constant": true,
      "inputs": [],
      "name": "ceoAddress",
      "outputs": [
        {
          "name": "",
          "type": "address"
        }
      ],
      "payable": false,
      "stateMutability": "view",
      "type": "function"
    },
    {
      "constant": false,
      "inputs": [
        {
          "name": "_newCEO",
          "type": "address"
        }
      ],
      "name": "setCEO",
      "outputs": [],
      "payable": false,
      "stateMutability": "nonpayable",
      "type": "function"
    },
    {
      "constant": true,
      "inputs": [],
      "name": "decimals",
      "outputs": [
        {
          "name": "",
          "type": "uint8"
        }
      ],
      "payable": false,
      "stateMutability": "view",
      "type": "function"
    },
    {
      "constant": false,
      "inputs": [],
      "name": "unpause",
      "outputs": [],
      "payable": false,
      "stateMutability": "nonpayable",
      "type": "function"
    },
    {
      "constant": true,
      "inputs": [],
      "name": "paused",
      "outputs": [
        {
          "name": "",
          "type": "bool"
        }
      ],
      "payable": false,
      "stateMutability": "view",
      "type": "function"
    },
    {
      "constant": true,
      "inputs": [
        {
          "name": "",
          "type": "address"
        }
      ],
      "name": "referees",
      "outputs": [
        {
          "name": "",
          "type": "address"
        }
      ],
      "payable": false,
      "stateMutability": "view",
      "type": "function"
    },
    {
      "constant": true,
      "inputs": [
        {
          "name": "_owner",
          "type": "address"
        }
      ],
      "name": "balanceOf",
      "outputs": [
        {
          "name": "balance",
          "type": "uint256"
        }
      ],
      "payable": false,
      "stateMutability": "view",
      "type": "function"
    },
    {
      "constant": false,
      "inputs": [],
      "name": "pause",
      "outputs": [],
      "payable": false,
      "stateMutability": "nonpayable",
      "type": "function"
    },
    {
      "constant": true,
      "inputs": [],
      "name": "TOTAL_SUPPLY",
      "outputs": [
        {
          "name": "",
          "type": "uint256"
        }
      ],
      "payable": false,
      "stateMutability": "view",
      "type": "function"
    },
    {
      "constant": true,
      "inputs": [],
      "name": "symbol",
      "outputs": [
        {
          "name": "",
          "type": "string"
        }
      ],
      "payable": false,
      "stateMutability": "view",
      "type": "function"
    },
    {
      "constant": true,
      "inputs": [
        {
          "name": "",
          "type": "address"
        }
      ],
      "name": "roles",
      "outputs": [
        {
          "name": "",
          "type": "uint8"
        }
      ],
      "payable": false,
      "stateMutability": "view",
      "type": "function"
    },
    {
      "constant": false,
      "inputs": [
        {
          "name": "_to",
          "type": "address"
        },
        {
          "name": "_value",
          "type": "uint256"
        }
      ],
      "name": "transfer",
      "outputs": [
        {
          "name": "",
          "type": "bool"
        }
      ],
      "payable": false,
      "stateMutability": "nonpayable",
      "type": "function"
    },
    {
      "constant": true,
      "inputs": [
        {
          "name": "",
          "type": "uint256"
        }
      ],
      "name": "supplyTypes",
      "outputs": [
        {
          "name": "",
          "type": "uint8"
        }
      ],
      "payable": false,
      "stateMutability": "view",
      "type": "function"
    },
    {
      "constant": true,
      "inputs": [
        {
          "name": "",
          "type": "address"
        }
      ],
      "name": "companys",
      "outputs": [
        {
          "name": "valuation",
          "type": "uint256"
        },
        {
          "name": "taxAACT",
          "type": "uint256"
        },
        {
          "name": "aipodAACT",
          "type": "uint256"
        },
        {
          "name": "livelihoodAACT",
          "type": "uint256"
        },
        {
          "name": "footstoneAACT",
          "type": "uint256"
        },
        {
          "name": "salesmanAACT",
          "type": "uint256"
        }
      ],
      "payable": false,
      "stateMutability": "view",
      "type": "function"
    },
    {
      "inputs": [],
      "payable": false,
      "stateMutability": "nonpayable",
      "type": "constructor"
    },
    {
      "anonymous": false,
      "inputs": [
        {
          "indexed": false,
          "name": "balanceAACT",
          "type": "uint256"
        },
        {
          "indexed": false,
          "name": "taxAACT",
          "type": "uint256"
        },
        {
          "indexed": false,
          "name": "aipodAACT",
          "type": "uint256"
        },
        {
          "indexed": false,
          "name": "livelihoodAACT",
          "type": "uint256"
        },
        {
          "indexed": false,
          "name": "footstoneAACT",
          "type": "uint256"
        },
        {
          "indexed": false,
          "name": "salesmanAACT",
          "type": "uint256"
        }
      ],
      "name": "CompanyWorthUpload",
      "type": "event"
    },
    {
      "anonymous": false,
      "inputs": [
        {
          "indexed": false,
          "name": "rewardAddress",
          "type": "address"
        },
        {
          "indexed": false,
          "name": "rewardAACT",
          "type": "uint256"
        },
        {
          "indexed": false,
          "name": "companyAddress",
          "type": "address"
        }
      ],
      "name": "GainRewardFromCompany",
      "type": "event"
    },
    {
      "anonymous": false,
      "inputs": [
        {
          "indexed": false,
          "name": "from",
          "type": "address"
        },
        {
          "indexed": false,
          "name": "amount",
          "type": "uint256"
        }
      ],
      "name": "WithdrawAACT",
      "type": "event"
    },
    {
      "anonymous": false,
      "inputs": [
        {
          "indexed": true,
          "name": "owner",
          "type": "address"
        },
        {
          "indexed": true,
          "name": "spender",
          "type": "address"
        },
        {
          "indexed": false,
          "name": "value",
          "type": "uint256"
        }
      ],
      "name": "Approval",
      "type": "event"
    },
    {
      "anonymous": false,
      "inputs": [
        {
          "indexed": true,
          "name": "from",
          "type": "address"
        },
        {
          "indexed": true,
          "name": "to",
          "type": "address"
        },
        {
          "indexed": false,
          "name": "value",
          "type": "uint256"
        }
      ],
      "name": "Transfer",
      "type": "event"
    },
    {
      "constant": false,
      "inputs": [
        {
          "name": "_to",
          "type": "address"
        },
        {
          "name": "_amount",
          "type": "uint256"
        }
      ],
      "name": "transferAACT",
      "outputs": [],
      "payable": false,
      "stateMutability": "nonpayable",
      "type": "function"
    },
    {
      "constant": false,
      "inputs": [
        {
          "name": "_from",
          "type": "address"
        },
        {
          "name": "_amount",
          "type": "uint256"
        }
      ],
      "name": "withdrawAACT",
      "outputs": [],
      "payable": false,
      "stateMutability": "nonpayable",
      "type": "function"
    },
    {
      "constant": false,
      "inputs": [
        {
          "name": "_new",
          "type": "address"
        },
        {
          "name": "_role",
          "type": "uint8"
        }
      ],
      "name": "setRole",
      "outputs": [],
      "payable": false,
      "stateMutability": "nonpayable",
      "type": "function"
    },
    {
      "constant": false,
      "inputs": [
        {
          "name": "_new",
          "type": "address"
        },
        {
          "name": "_referee",
          "type": "address"
        },
        {
          "name": "_valuation",
          "type": "uint256"
        },
        {
          "name": "_supplyType",
          "type": "uint8"
        },
        {
          "name": "_salesmen",
          "type": "address[]"
        }
      ],
      "name": "uploadCompanyWorth",
      "outputs": [],
      "payable": false,
      "stateMutability": "nonpayable",
      "type": "function"
    },
    {
      "constant": true,
      "inputs": [],
      "name": "totalSupply",
      "outputs": [
        {
          "name": "",
          "type": "uint256"
        }
      ],
      "payable": false,
      "stateMutability": "view",
      "type": "function"
    },
    {
      "constant": true,
      "inputs": [],
      "name": "historySupply",
      "outputs": [
        {
          "name": "",
          "type": "uint256"
        }
      ],
      "payable": false,
      "stateMutability": "view",
      "type": "function"
    },
    {
      "constant": false,
      "inputs": [
        {
          "name": "_newType",
          "type": "uint8"
        }
      ],
      "name": "addSupplyType",
      "outputs": [],
      "payable": false,
      "stateMutability": "nonpayable",
      "type": "function"
    },
    {
      "constant": false,
      "inputs": [
        {
          "name": "_from",
          "type": "address"
        },
        {
          "name": "_to",
          "type": "address"
        },
        {
          "name": "_value",
          "type": "uint256"
        }
      ],
      "name": "transferFrom",
      "outputs": [
        {
          "name": "",
          "type": "bool"
        }
      ],
      "payable": false,
      "stateMutability": "nonpayable",
      "type": "function"
    },
    {
      "constant": false,
      "inputs": [
        {
          "name": "_spender",
          "type": "address"
        },
        {
          "name": "_value",
          "type": "uint256"
        }
      ],
      "name": "approve",
      "outputs": [
        {
          "name": "",
          "type": "bool"
        }
      ],
      "payable": false,
      "stateMutability": "nonpayable",
      "type": "function"
    },
    {
      "constant": true,
      "inputs": [
        {
          "name": "_owner",
          "type": "address"
        },
        {
          "name": "_spender",
          "type": "address"
        }
      ],
      "name": "allowance",
      "outputs": [
        {
          "name": "",
          "type": "uint256"
        }
      ],
      "payable": false,
      "stateMutability": "view",
      "type": "function"
    },
    {
      "constant": false,
      "inputs": [
        {
          "name": "_spender",
          "type": "address"
        },
        {
          "name": "_addedValue",
          "type": "uint256"
        }
      ],
      "name": "increaseApproval",
      "outputs": [
        {
          "name": "",
          "type": "bool"
        }
      ],
      "payable": false,
      "stateMutability": "nonpayable",
      "type": "function"
    },
    {
      "constant": false,
      "inputs": [
        {
          "name": "_spender",
          "type": "address"
        },
        {
          "name": "_subtractedValue",
          "type": "uint256"
        }
      ],
      "name": "decreaseApproval",
      "outputs": [
        {
          "name": "",
          "type": "bool"
        }
      ],
      "payable": false,
      "stateMutability": "nonpayable",
      "type": "function"
    }
  ],
  "bytecode": "0x60806040526000805460a060020a60ff021916905534801561002057600080fd5b5060008054600160a060020a03338116600160a060020a031960a060020a60ff0219909316740100000000000000000000000000000000000000001792909216919091178083551681526009602090815260408220805460ff1916600517905560048054600181810183558285528382047f8a35acfbc15ff81a39ae7d344fd709f28e8600b4aa8c65c6b64bfe7fe36bd19b9081018054601f94851661010090810a60ff818102199093161790925585549384019095559482040180549190921690930a6002818102919093021990931692909217909155556119e4806101086000396000f3006080604052600436106101695763ffffffff7c010000000000000000000000000000000000000000000000000000000060003504166306fdde03811461016e57806307f177a9146101f8578063095ea7b31461022c5780630a0f8168146102645780630b0493fb1461027957806318160ddd1461029f57806323b872dd146102c657806327d7874c146102f0578063313ce5671461031157806338320f0e1461033c5780633f4ba83a146103605780634ca4759b14610375578063571c3e60146103ec5780635c975abb1461041357806364a60b4714610428578063661884631461044957806370a082311461046d5780638456cb591461048e578063902d55a5146104a357806395d89b41146104b857806399374642146104cd578063a5038831146104ee578063a9059cbb14610509578063aa9ad4b01461052d578063b848caea14610545578063d73dd6231461055a578063db047c771461057e578063dd62ed3e146105d2575b600080fd5b34801561017a57600080fd5b506101836105f9565b6040805160208082528351818301528351919283929083019185019080838360005b838110156101bd5781810151838201526020016101a5565b50505050905090810190601f1680156101ea5780820380516001836020036101000a031916815260200191505b509250505060405180910390f35b34801561020457600080fd5b50610210600435610630565b60408051600160a060020a039092168252519081900360200190f35b34801561023857600080fd5b50610250600160a060020a0360043516602435610658565b604080519115158252519081900360200190f35b34801561027057600080fd5b506102106106e6565b34801561028557600080fd5b5061029d600160a060020a03600435166024356106f5565b005b3480156102ab57600080fd5b506102b46107ec565b60408051918252519081900360200190f35b3480156102d257600080fd5b50610250600160a060020a03600435811690602435166044356107f2565b3480156102fc57600080fd5b5061029d600160a060020a036004351661099a565b34801561031d57600080fd5b506103266109f9565b6040805160ff9092168252519081900360200190f35b34801561034857600080fd5b5061029d600160a060020a03600435166024356109fe565b34801561036c57600080fd5b5061029d610b10565b34801561038157600080fd5b50604080516020600460843581810135838102808601850190965280855261029d958335600160a060020a039081169660248035909216966044359660643560ff16963696919560a4959091019282919085019084908082843750949750610b639650505050505050565b3480156103f857600080fd5b5061029d600160a060020a036004351660ff60243516610f6a565b34801561041f57600080fd5b5061025061105f565b34801561043457600080fd5b50610210600160a060020a036004351661106f565b34801561045557600080fd5b50610250600160a060020a036004351660243561108a565b34801561047957600080fd5b506102b4600160a060020a03600435166111ae565b34801561049a57600080fd5b5061029d6111c9565b3480156104af57600080fd5b506102b4611221565b3480156104c457600080fd5b5061018361122b565b3480156104d957600080fd5b50610326600160a060020a0360043516611262565b3480156104fa57600080fd5b5061029d60ff60043516611277565b34801561051557600080fd5b50610250600160a060020a0360043516602435611356565b34801561053957600080fd5b50610326600435611477565b34801561055157600080fd5b506102b46114a9565b34801561056657600080fd5b50610250600160a060020a03600435166024356114af565b34801561058a57600080fd5b5061059f600160a060020a0360043516611577565b604080519687526020870195909552858501939093526060850191909152608084015260a0830152519081900360c00190f35b3480156105de57600080fd5b506102b4600160a060020a03600435811690602435166115ac565b60408051808201909152600c81527fe9be99e8b49de5a49ae5a49a0000000000000000000000000000000000000000602082015281565b600780548290811061063e57fe5b600091825260209091200154600160a060020a0316905081565b6000805460a060020a900460ff161561067057600080fd5b635e0b7080421161068057600080fd5b600160a060020a03338116600081815260086020908152604080832094881680845294825291829020869055815186815291517f8c5be1e5ebec7d5bd14f71427d1e84f3dd0314c0f7b2291e5b200ac8c7c3b9259281900390910190a350600192915050565b600054600160a060020a031681565b60005460a060020a900460ff161561070c57600080fd5b60005433600160a060020a0390811691161461072757600080fd5b600160a060020a03821660009081526001602052604090205481111561074c57600080fd5b600160a060020a038216600090815260016020526040902054610775908263ffffffff6115d716565b600160a060020a0383166000908152600160205260409020556003546107a1908263ffffffff6115e916565b60035560408051600160a060020a03841681526020810183905281517f8f7a51ecf866418f2bd713532e1e833136345044a2906d32ec351b85f55fe3a9929181900390910190a15050565b60025490565b6000805460a060020a900460ff161561080a57600080fd5b635e0b7080421161081a57600080fd5b600160a060020a038316151561082f57600080fd5b600160a060020a03841660009081526001602052604090205482111561085457600080fd5b600160a060020a038085166000908152600860209081526040808320339094168352929052205482111561088757600080fd5b600160a060020a0384166000908152600160205260409020546108b0908363ffffffff6115d716565b600160a060020a0380861660009081526001602052604080822093909355908516815220546108e5908363ffffffff6115e916565b600160a060020a0380851660009081526001602090815260408083209490945587831682526008815283822033909316825291909152205461092d908363ffffffff6115d716565b600160a060020a038086166000818152600860209081526040808320338616845282529182902094909455805186815290519287169391927fddf252ad1be2c89b69c2b068fc378daa952ba7f163c4a11628f55a4df523b3ef929181900390910190a35060019392505050565b60005433600160a060020a039081169116146109b557600080fd5b600160a060020a03811615156109ca57600080fd5b6000805473ffffffffffffffffffffffffffffffffffffffff1916600160a060020a0392909216919091179055565b601281565b60005460a060020a900460ff1615610a1557600080fd5b60005433600160a060020a03908116911614610a3057600080fd5b60008054600160a060020a0316815260016020526040902054811115610a5557600080fd5b60008054600160a060020a0316815260016020526040902054610a7e908263ffffffff6115d716565b60008054600160a060020a0390811682526001602052604080832093909355841681522054610ab3908263ffffffff6115e916565b600160a060020a0380841660008181526001602090815260408083209590955590548451868152945192949316927fddf252ad1be2c89b69c2b068fc378daa952ba7f163c4a11628f55a4df523b3ef929081900390910190a35050565b60005433600160a060020a03908116911614610b2b57600080fd5b60005460a060020a900460ff161515610b4357600080fd5b6000805474ff000000000000000000000000000000000000000019169055565b60008054819081908190819060a060020a900460ff1615610b8357600080fd5b600160a060020a038916600090815260096020526040902054600360ff9091161015610bae57600080fd5b600054600160a060020a038a811691161480610bdb575088600160a060020a031633600160a060020a0316145b1515610be657600080fd5b600160a060020a038a16600090815260096020526040902054600360ff9091161015610c3057600160a060020a038a166000908152600960205260409020805460ff191660031790555b610c3b8a89896115ff565b600160a060020a038a81166000908152600a6020526040902054161515610c9857600160a060020a038a81166000908152600a60205260409020805473ffffffffffffffffffffffffffffffffffffffff1916918b169190911790555b600160a060020a03808b166000908152600660209081526040808320600481015484549095168452600190925290912054909650610cdb9163ffffffff6115e916565b60008054600160a060020a03908116825260016020908152604080842094909455600489018390558c82168352600a9052919020541693508315610dec57610d42600e610d366004886005015461179b90919063ffffffff16565b9063ffffffff6117c616565b600160a060020a038516600090815260016020526040902054909350610d6e908463ffffffff6115e916565b600160a060020a0385166000908152600160205260409020556005850154610d9c908463ffffffff6115d716565b600586015560408051600160a060020a038087168252602082018690528c168183015290517f9524c3cc5b4505c929681e525b1b9316e10578c562bd6c8b5e66f21d5000f4569181900360600190a15b855191508115610e1857610e13600a610d366006886005015461179b90919063ffffffff16565b610e1e565b84600501545b600160a060020a038a16600090815260016020526040902054909150610e4a908263ffffffff6115e916565b600160a060020a038a166000908152600160205260409020556005850154610e78908263ffffffff6115d716565b600586015560408051600160a060020a03808c168252602082018490528c168183015290517f9524c3cc5b4505c929681e525b1b9316e10578c562bd6c8b5e66f21d5000f4569181900360600190a16000821115610edb57610edb8a83886117dd565b600160a060020a038a166000908152600160208181526040928390205491880154600289015460038a015460048b015460058c0154875196875294860193909352848601919091526060840152608083015260a082015290517ff9df41b10bd8526911c4a58f772636d9e5dd55eb2597cd1c11e0983be65dc9479181900360c00190a150505050505050505050565b60005460a060020a900460ff1615610f8157600080fd5b60005433600160a060020a03908116911614610f9c57600080fd5b600160a060020a03821660009081526009602052604090205460ff808316911611801590610fcd575060058160ff16105b1561105b57600160a060020a0382166000908152600960205260409020805460ff191660ff83169081179091556004141561105b57600780546001810182556000919091527fa66cc928b5edb82af9bd49922954155ab7b0942694bea4ce44661d9a8736c68801805473ffffffffffffffffffffffffffffffffffffffff1916600160a060020a0384161790555b5050565b60005460a060020a900460ff1681565b600a60205260009081526040902054600160a060020a031681565b60008054819060a060020a900460ff16156110a457600080fd5b635e0b708042116110b457600080fd5b50600160a060020a033381166000908152600860209081526040808320938716835292905220548083111561111057600160a060020a033381166000908152600860209081526040808320938816835292905290812055611147565b611120818463ffffffff6115d716565b600160a060020a033381166000908152600860209081526040808320938916835292905220555b600160a060020a0333811660008181526008602090815260408083209489168084529482529182902054825190815291517f8c5be1e5ebec7d5bd14f71427d1e84f3dd0314c0f7b2291e5b200ac8c7c3b9259281900390910190a3600191505b5092915050565b600160a060020a031660009081526001602052604090205490565b60005433600160a060020a039081169116146111e457600080fd5b60005460a060020a900460ff16156111fb57600080fd5b6000805474ff0000000000000000000000000000000000000000191660a060020a179055565b655e96630e800081565b60408051808201909152600481527f4141435400000000000000000000000000000000000000000000000000000000602082015281565b60096020526000908152604090205460ff1681565b60008054819033600160a060020a0390811691161461129557600080fd5b5060009050805b60045460ff821610156112f6578260ff1660048260ff168154811015156112bf57fe5b60009182526020918290209181049091015460ff601f9092166101000a90041614156112ee57600191506112f6565b60010161129c565b8115156113515760048054600181018255600091909152602081047f8a35acfbc15ff81a39ae7d344fd709f28e8600b4aa8c65c6b64bfe7fe36bd19b01805460ff808716601f9094166101000a938402930219169190911790555b505050565b6000805460a060020a900460ff161561136e57600080fd5b635e0b7080421161137e57600080fd5b600160a060020a038316151561139357600080fd5b600160a060020a0333166000908152600160205260409020548211156113b857600080fd5b600160a060020a0333166000908152600160205260409020546113e1908363ffffffff6115d716565b600160a060020a033381166000908152600160205260408082209390935590851681522054611416908363ffffffff6115e916565b600160a060020a038085166000818152600160209081526040918290209490945580518681529051919333909316927fddf252ad1be2c89b69c2b068fc378daa952ba7f163c4a11628f55a4df523b3ef92918290030190a350600192915050565b600480548290811061148557fe5b9060005260206000209060209182820401919006915054906101000a900460ff1681565b60035490565b6000805460a060020a900460ff16156114c757600080fd5b635e0b708042116114d757600080fd5b600160a060020a0333811660009081526008602090815260408083209387168352929052205461150d908363ffffffff6115e916565b600160a060020a0333811660008181526008602090815260408083209489168084529482529182902085905581519485529051929391927f8c5be1e5ebec7d5bd14f71427d1e84f3dd0314c0f7b2291e5b200ac8c7c3b9259281900390910190a350600192915050565b600660205260009081526040902080546001820154600283015460038401546004850154600590950154939492939192909186565b600160a060020a03918216600090815260086020908152604080832093909416825291909152205490565b6000828211156115e357fe5b50900390565b6000828201838110156115f857fe5b9392505050565b600160a060020a038316600090815260096020526040812054819081908190600360ff9091161161162f57600080fd5b600254655e96630e80009087011061164657600080fd5b600160a060020a038716600090815260016020526040902054600a600388020494506064600e880204935061167b90856115e9565b600160a060020a038816600090815260016020908152604080832093909355600690522080549092506116b4908763ffffffff6115e916565b825560018201546116cb908463ffffffff6115e916565b600183015560028201546116e5908463ffffffff6115e916565b600283015560038201546116ff908463ffffffff6115e916565b60038301556004820154611719908463ffffffff6115e916565b60048301556005820154611733908463ffffffff6115e916565b60058084019190915560025490840285019150611756908263ffffffff6115e916565b60025560ff851660009081526005602052604090205461177c908263ffffffff6115e916565b60ff909516600090815260056020526040902094909455505050505050565b6000808315156117ae57600091506111a7565b508282028284828115156117be57fe5b04146115f857fe5b60008082848115156117d457fe5b04949350505050565b600160a060020a03831660009081526006602052604081206005810154909190819081908190879081151561180e57fe5b04935060009250600091505b868260ff16101561199157858260ff1681518110151561183657fe5b6020908102909101810151600160a060020a03811660009081526009909252604090912054909150600260ff909116101561188f57600160a060020a0381166000908152600960205260409020805460ff191660021790555b6118d78460016000898660ff168151811015156118a857fe5b6020908102909101810151600160a060020a03168252810191909152604001600020549063ffffffff6115e916565b60016000888560ff168151811015156118ec57fe5b6020908102909101810151600160a060020a031682528101919091526040016000205561191f838563ffffffff6115e916565b92507f9524c3cc5b4505c929681e525b1b9316e10578c562bd6c8b5e66f21d5000f456868360ff1681518110151561195357fe5b602090810290910181015160408051600160a060020a039283168152928301889052908b1682820152519081900360600190a160019091019061181a565b60058501546119a6908463ffffffff6115d716565b856005018190555050505050505050505600a165627a7a7230582006f5a7dc423bdbf5bfb8e564c5224b8d13a2158e7f821f895b05e0a65eb7aa0d0029",
  "source": "pragma solidity ^0.4.18;\r\n\r\n\r\nimport \"./BasicToken.sol\";\r\nimport \"./ERC20.sol\";\r\n\r\n\r\n/**\r\n * @title AACT token\r\n *\r\n * @dev https://github.com/ethereum/EIPs/issues/20\r\n */\r\ncontract AACT is ERC20, BasicToken {\r\n\r\n    string public constant name = \"\";\r\n    string public constant symbol = \"AACT\";\r\n    uint256 public constant TOTAL_SUPPLY = 104000000000000;\r\n    uint8 public constant decimals = 18;\r\n\r\n    uint256 totalSupply_;\r\n    // withdraw AACT amount\r\n    uint256 historySupply_;\r\n\r\n    // all supply types\r\n    uint8[] public supplyTypes;\r\n    // total supply for each type\r\n    mapping(uint8 => uint256) supplys;\r\n\r\n    // structure for company\r\n    struct Company {\r\n        uint256 valuation;\r\n        uint256 taxAACT;\r\n        uint256 aipodAACT;\r\n        uint256 livelihoodAACT;\r\n        uint256 footstoneAACT;\r\n        uint256 salesmanAACT;\r\n    }\r\n\r\n    mapping(address => Company) public companys;\r\n\r\n    address[] public footstoneAccounts;\r\n\r\n    // events\r\n    // when a company's worth upload successfully\r\n    event CompanyWorthUpload(\r\n        uint256 balanceAACT,\r\n        uint256 taxAACT,\r\n        uint256 aipodAACT,\r\n        uint256 livelihoodAACT,\r\n        uint256 footstoneAACT,\r\n        uint256 salesmanAACT\r\n    );\r\n\r\n    // when someone gain AACT by helping a company upload its worth\r\n    event GainRewardFromCompany(\r\n        address rewardAddress,\r\n        uint256 rewardAACT,\r\n        address companyAddress\r\n    );\r\n\r\n    // when CEO withdraw someone's AACT\r\n    event WithdrawAACT(\r\n        address from,\r\n        uint256 amount\r\n    );\r\n\r\n    mapping (address => mapping (address => uint256)) internal allowed;\r\n    // @dev roles 5:super administrator, 4:footstoneMember, 3:company, 2:individual, 0:unregistered\r\n    mapping (address => uint8) public roles;\r\n    // @dev every company has a referee\r\n    mapping (address => address) public referees;\r\n\r\n    // @dev make sure msg.sender has registered\r\n    modifier registered() {\r\n        require(roles[msg.sender] > 0);\r\n        _;\r\n    }\r\n\r\n    // @dev consider roles of company or higher than company as an administrator\r\n    modifier onlyAdmin() {\r\n        require(roles[msg.sender] >= 3);\r\n        _;\r\n    }\r\n\r\n    /// @notice Creates the main AACT smart contract instance.\r\n    function AACT() public {\r\n        // Starts paused.\r\n        paused = true;\r\n        \r\n        // the creator of the contract is also the initial CEO\r\n        ceoAddress = msg.sender;\r\n        // CEO is the only one super administrator\r\n        roles[ceoAddress] = 5;\r\n\r\n        // 1 for legal money assets\r\n        supplyTypes.push(1);\r\n        // 2 for resource assets\r\n        supplyTypes.push(2);\r\n        // total supply AACT amount\r\n        totalSupply_ = 0;\r\n    }\r\n\r\n    /// @dev Allocate _amount AACT to _to a company\r\n    function allocateAACT2company(address _to, uint256 _amount, uint8 _supplyType) internal {\r\n        require(roles[_to] > 3);\r\n        require(totalSupply_ + _amount < TOTAL_SUPPLY);\r\n        // @notice the decimal value will be cut, thus the actual distributed AACT may be less than _amount\r\n        uint256 _30percent = 3 * _amount / 10;\r\n        uint256 _14percent = 14 * _amount / 100;\r\n        balances[_to] = balances[_to].add(_30percent);\r\n        Company storage comp = companys[_to];\r\n        comp.valuation = comp.valuation.add(_amount);\r\n        comp.taxAACT = comp.taxAACT.add(_14percent);\r\n        comp.aipodAACT = comp.aipodAACT.add(_14percent);\r\n        comp.livelihoodAACT = comp.livelihoodAACT.add(_14percent);\r\n        comp.footstoneAACT = comp.footstoneAACT.add(_14percent);\r\n        comp.salesmanAACT = comp.salesmanAACT.add(_14percent);\r\n        uint256 _totalSupply = _30percent + 5 * _14percent;\r\n        totalSupply_ = totalSupply_.add(_totalSupply);\r\n        supplys[_supplyType] = supplys[_supplyType].add(_totalSupply);\r\n    }\r\n\r\n    /**\r\n    * @dev CEO can transfer his AACT to anyone whenever\r\n    */\r\n    function transferAACT(address _to, uint256 _amount) public whenNotPaused onlyCEO {\r\n        require(balances[ceoAddress] >= _amount);\r\n        balances[ceoAddress] = balances[ceoAddress].sub(_amount);\r\n        balances[_to] = balances[_to].add(_amount);\r\n        emit Transfer(ceoAddress, _to, _amount);\r\n    }\r\n\r\n    /**\r\n    * @dev CEO has the privilege to withdraw someone's AACT\r\n    */\r\n    function withdrawAACT(address _from, uint256 _amount) public whenNotPaused onlyCEO {\r\n        require(balances[_from] >= _amount);\r\n        balances[_from] = balances[_from].sub(_amount);\r\n        historySupply_ = historySupply_.add(_amount);\r\n        emit WithdrawAACT(_from, _amount);\r\n    }\r\n\r\n    /**\r\n    * @dev set role of an address, only CEO has the privilege to invoke\r\n    * @param _new the new footstone member\r\n    * @param _role the role will be set\r\n    */\r\n    function setRole(address _new, uint8 _role) public whenNotPaused onlyCEO {\r\n        if (roles[_new] <= _role && _role < 5) {\r\n            roles[_new] = _role;\r\n            if (_role == 4) {\r\n                footstoneAccounts.push(_new);\r\n            }\r\n        }\r\n    }\r\n\r\n    /**\r\n    * @dev Upload a company's worth with some salesmen\r\n    * @param _new the new address which represents the company and need to be registered\r\n    * @param _referee the referee of _new company\r\n    * @param _valuation the total valuation of _new company\r\n    * @param _supplyType the supply type\r\n    * @param _salesmen salesmen who offer assistance to _new company for register\r\n    */\r\n    function uploadCompanyWorth(address _new, address _referee, uint256 _valuation, uint8 _supplyType, address[] _salesmen) public whenNotPaused {\r\n        // the _referee's role privilege must be higher than company\r\n        require(roles[_referee] >= 3);\r\n        // the _referee must be msg.sender or CEO\r\n        require(ceoAddress == _referee || msg.sender == _referee);\r\n        // elevate _new's role\r\n        if (roles[_new] < 3) {\r\n            roles[_new] = 3;\r\n        }\r\n        // distribute AACTs\r\n        allocateAACT2company(_new, _valuation, _supplyType);\r\n        // set referee if the company didn't has one\r\n        if (referees[_new] == address(0)) {\r\n            referees[_new] = _referee;\r\n        }\r\n        Company storage comp = companys[_new];\r\n        // transfer the footstone AACT to CEO account\r\n        balances[ceoAddress] = balances[ceoAddress].add(comp.footstoneAACT);\r\n        comp.footstoneAACT = 0;\r\n        // transfer the salesman AACT to referee\r\n        // first distribute the grandreferee part if the grandreferee exists\r\n        address grandReferee = referees[_referee];\r\n        if (grandReferee != address(0)) {\r\n            uint256 grandRefereeRebate = comp.salesmanAACT.mul(4).div(14);\r\n            balances[grandReferee] = balances[grandReferee].add(grandRefereeRebate);\r\n            comp.salesmanAACT = comp.salesmanAACT.sub(grandRefereeRebate);\r\n            emit GainRewardFromCompany(grandReferee, grandRefereeRebate, _new);\r\n        }\r\n        // and then, distribute the referee part\r\n        uint256 len = _salesmen.length;\r\n        uint256 refereeRebate = len == 0 ? comp.salesmanAACT : comp.salesmanAACT.mul(6).div(10);\r\n        balances[_referee] = balances[_referee].add(refereeRebate);\r\n        comp.salesmanAACT = comp.salesmanAACT.sub(refereeRebate);\r\n        emit GainRewardFromCompany(_referee, refereeRebate, _new);\r\n        // at last, distribute the salesmen part\r\n        if (len > 0) {\r\n            allocateSalemenAACT(_new, len, _salesmen);\r\n        }\r\n        // CompanyWorthUpload event\r\n        emit CompanyWorthUpload(balances[_new], comp.taxAACT, comp.aipodAACT, comp.livelihoodAACT, comp.footstoneAACT, comp.salesmanAACT);\r\n    }\r\n    \r\n    /**\r\n    * @dev calculate totalSupply by count supplys of each type\r\n    */\r\n    function allocateSalemenAACT(address _new, uint256 len, address[] _salesmen) internal {\r\n        Company storage comp = companys[_new];\r\n        uint256 perAACT = comp.salesmanAACT / len;\r\n        uint256 totalSalesmenAACT = 0;\r\n        for (uint8 i = 0; i < len; i++) {\r\n            address salesmanAddress = _salesmen[i];\r\n            if (roles[salesmanAddress] < 2) { // make sure salesman has registered\r\n                roles[salesmanAddress] = 2;\r\n            }\r\n            balances[_salesmen[i]] = balances[_salesmen[i]].add(perAACT);\r\n            totalSalesmenAACT = totalSalesmenAACT.add(perAACT);\r\n            emit GainRewardFromCompany(_salesmen[i], perAACT, _new);\r\n        }\r\n        comp.salesmanAACT = comp.salesmanAACT.sub(totalSalesmenAACT);\r\n    }\r\n\r\n    /**\r\n    * @dev return totalSupply_\r\n    */\r\n    function totalSupply() public view returns(uint256) {\r\n        return totalSupply_;\r\n    }\r\n\r\n    /**\r\n    * @dev return historySupply_\r\n    */\r\n    function historySupply() public view returns(uint256) {\r\n        return historySupply_;\r\n    }\r\n\r\n    /**\r\n    * @dev Add a new supply type\r\n    */\r\n    function addSupplyType(uint8 _newType) public onlyCEO {\r\n        bool typeExist = false;\r\n        for (uint8 i = 0; i < supplyTypes.length; i++) {\r\n            if (supplyTypes[i] == _newType) {\r\n                typeExist = true;\r\n                break;\r\n            }\r\n        }\r\n        if (!typeExist) {\r\n            supplyTypes.push(_newType);\r\n        }\r\n    }\r\n\r\n    /**\r\n    * @dev Transfer tokens from one address to another\r\n    * @param _from address The address which you want to send tokens from\r\n    * @param _to address The address which you want to transfer to\r\n    * @param _value uint256 the amount of tokens to be transferred\r\n    */\r\n    function transferFrom(address _from, address _to, uint256 _value) public whenNotPaused after2020 returns (bool) {\r\n        require(_to != address(0));\r\n        require(_value <= balances[_from]);\r\n        require(_value <= allowed[_from][msg.sender]);\r\n\r\n        balances[_from] = balances[_from].sub(_value);\r\n        balances[_to] = balances[_to].add(_value);\r\n        allowed[_from][msg.sender] = allowed[_from][msg.sender].sub(_value);\r\n        emit Transfer(_from, _to, _value);\r\n        return true;\r\n    }\r\n\r\n    /**\r\n    * @dev Approve the passed address to spend the specified amount of tokens on behalf of msg.sender.\r\n    *\r\n    * Beware that changing an allowance with this method brings the risk that someone may use both the old\r\n    * and the new allowance by unfortunate transaction ordering. One possible solution to mitigate this\r\n    * race condition is to first reduce the spender's allowance to 0 and set the desired value afterwards:\r\n    * https://github.com/ethereum/EIPs/issues/20#issuecomment-263524729\r\n    * @param _spender The address which will spend the funds.\r\n    * @param _value The amount of tokens to be spent.\r\n    */\r\n    function approve(address _spender, uint256 _value) public whenNotPaused after2020 returns (bool) {\r\n        allowed[msg.sender][_spender] = _value;\r\n        emit Approval(msg.sender, _spender, _value);\r\n        return true;\r\n    }\r\n\r\n    /**\r\n    * @dev Function to check the amount of tokens that an owner allowed to a spender.\r\n    * @param _owner address The address which owns the funds.\r\n    * @param _spender address The address which will spend the funds.\r\n    * @return A uint256 specifying the amount of tokens still available for the spender.\r\n    */\r\n    function allowance(address _owner, address _spender) public view returns (uint256) {\r\n        return allowed[_owner][_spender];\r\n    }\r\n\r\n    /**\r\n    * @dev Increase the amount of tokens that an owner allowed to a spender.\r\n    *\r\n    * approve should be called when allowed[_spender] == 0. To increment\r\n    * allowed value is better to use this function to avoid 2 calls (and wait until\r\n    * the first transaction is mined)\r\n    * From MonolithDAO Token.sol\r\n    * @param _spender The address which will spend the funds.\r\n    * @param _addedValue The amount of tokens to increase the allowance by.\r\n    */\r\n    function increaseApproval(address _spender, uint _addedValue) public whenNotPaused after2020 returns (bool) {\r\n        allowed[msg.sender][_spender] = allowed[msg.sender][_spender].add(_addedValue);\r\n        emit Approval(msg.sender, _spender, allowed[msg.sender][_spender]);\r\n        return true;\r\n    }\r\n\r\n    /**\r\n    * @dev Decrease the amount of tokens that an owner allowed to a spender.\r\n    *\r\n    * approve should be called when allowed[_spender] == 0. To decrement\r\n    * allowed value is better to use this function to avoid 2 calls (and wait until\r\n    * the first transaction is mined)\r\n    * From MonolithDAO Token.sol\r\n    * @param _spender The address which will spend the funds.\r\n    * @param _subtractedValue The amount of tokens to decrease the allowance by.\r\n    */\r\n    function decreaseApproval(address _spender, uint _subtractedValue) public whenNotPaused after2020 returns (bool) {\r\n        uint oldValue = allowed[msg.sender][_spender];\r\n        if (_subtractedValue > oldValue) {\r\n            allowed[msg.sender][_spender] = 0;\r\n        } else {\r\n            allowed[msg.sender][_spender] = oldValue.sub(_subtractedValue);\r\n        }\r\n        emit Approval(msg.sender, _spender, allowed[msg.sender][_spender]);\r\n        return true;\r\n    }\r\n}\r\n",
  "sourcePath": "C:\\project\\AACT\\contracts\\AACT.sol",
  "compiler": {
    "name": "solc",
    "version": "0.4.23+commit.124ca40d.Emscripten.clang"
  },
  "schemaVersion": "2.0.0",
  "updatedAt": "2018-05-24T03:08:15.385Z"
}