{
  "contractName": "BasicToken",
  "abi": [
    {
      "constant": true,
      "inputs": [],
      "name": "ceoAddress",
      "outputs": [
        {
          "name": "",
          "type": "address"
        }
      ],
      "payable": false,
      "stateMutability": "view",
      "type": "function"
    },
    {
      "constant": true,
      "inputs": [],
      "name": "totalSupply",
      "outputs": [
        {
          "name": "",
          "type": "uint256"
        }
      ],
      "payable": false,
      "stateMutability": "view",
      "type": "function"
    },
    {
      "constant": false,
      "inputs": [
        {
          "name": "_newCEO",
          "type": "address"
        }
      ],
      "name": "setCEO",
      "outputs": [],
      "payable": false,
      "stateMutability": "nonpayable",
      "type": "function"
    },
    {
      "constant": false,
      "inputs": [],
      "name": "unpause",
      "outputs": [],
      "payable": false,
      "stateMutability": "nonpayable",
      "type": "function"
    },
    {
      "constant": true,
      "inputs": [],
      "name": "paused",
      "outputs": [
        {
          "name": "",
          "type": "bool"
        }
      ],
      "payable": false,
      "stateMutability": "view",
      "type": "function"
    },
    {
      "constant": true,
      "inputs": [
        {
          "name": "_owner",
          "type": "address"
        }
      ],
      "name": "balanceOf",
      "outputs": [
        {
          "name": "balance",
          "type": "uint256"
        }
      ],
      "payable": false,
      "stateMutability": "view",
      "type": "function"
    },
    {
      "constant": false,
      "inputs": [],
      "name": "pause",
      "outputs": [],
      "payable": false,
      "stateMutability": "nonpayable",
      "type": "function"
    },
    {
      "constant": false,
      "inputs": [
        {
          "name": "_to",
          "type": "address"
        },
        {
          "name": "_value",
          "type": "uint256"
        }
      ],
      "name": "transfer",
      "outputs": [
        {
          "name": "",
          "type": "bool"
        }
      ],
      "payable": false,
      "stateMutability": "nonpayable",
      "type": "function"
    },
    {
      "anonymous": false,
      "inputs": [
        {
          "indexed": true,
          "name": "from",
          "type": "address"
        },
        {
          "indexed": true,
          "name": "to",
          "type": "address"
        },
        {
          "indexed": false,
          "name": "value",
          "type": "uint256"
        }
      ],
      "name": "Transfer",
      "type": "event"
    }
  ],
  "bytecode": "0x60606040526000805460a060020a60ff0219169055341561001f57600080fd5b6104548061002e6000396000f30060606040526004361061008d5763ffffffff7c01000000000000000000000000000000000000000000000000000000006000350416630a0f8168811461009257806318160ddd146100c157806327d7874c146100e65780633f4ba83a146101075780635c975abb1461011a57806370a08231146101415780638456cb5914610160578063a9059cbb14610173575b600080fd5b341561009d57600080fd5b6100a5610195565b604051600160a060020a03909116815260200160405180910390f35b34156100cc57600080fd5b6100d46101a4565b60405190815260200160405180910390f35b34156100f157600080fd5b610105600160a060020a03600435166101aa565b005b341561011257600080fd5b610105610209565b341561012557600080fd5b61012d61025c565b604051901515815260200160405180910390f35b341561014c57600080fd5b6100d4600160a060020a036004351661026c565b341561016b57600080fd5b610105610287565b341561017e57600080fd5b61012d600160a060020a03600435166024356102df565b600054600160a060020a031681565b60025490565b60005433600160a060020a039081169116146101c557600080fd5b600160a060020a03811615156101da57600080fd5b6000805473ffffffffffffffffffffffffffffffffffffffff1916600160a060020a0392909216919091179055565b60005433600160a060020a0390811691161461022457600080fd5b60005460a060020a900460ff16151561023c57600080fd5b6000805474ff000000000000000000000000000000000000000019169055565b60005460a060020a900460ff1681565b600160a060020a031660009081526001602052604090205490565b60005433600160a060020a039081169116146102a257600080fd5b60005460a060020a900460ff16156102b957600080fd5b6000805474ff0000000000000000000000000000000000000000191660a060020a179055565b6000805460a060020a900460ff16156102f757600080fd5b635e0b7080421161030757600080fd5b600160a060020a038316151561031c57600080fd5b600160a060020a03331660009081526001602052604090205482111561034157600080fd5b600160a060020a03331660009081526001602052604090205461036a908363ffffffff61040016565b600160a060020a03338116600090815260016020526040808220939093559085168152205461039f908363ffffffff61041216565b600160a060020a0380851660008181526001602052604090819020939093559133909116907fddf252ad1be2c89b69c2b068fc378daa952ba7f163c4a11628f55a4df523b3ef9085905190815260200160405180910390a350600192915050565b60008282111561040c57fe5b50900390565b60008282018381101561042157fe5b93925050505600a165627a7a72305820be55006ebf22a82f5a02b1f3c282db2f1f66f652c462036f0e0e2fdab8cc0d380029",
  "source": "pragma solidity ^0.4.18;\r\n\r\nimport \"./AACTAccessControl.sol\";\r\nimport \"./SafeMath.sol\";\r\n\r\n\r\n/**\r\n * @title Basic token\r\n * @dev Basic version of StandardToken, with no allowances.\r\n */\r\ncontract BasicToken is AACTAccessControl {\r\n    using SafeMath for uint256;\r\n\r\n    mapping(address => uint256) balances;\r\n\r\n    uint256 totalSupply_;\r\n\r\n    // @dev check if current time is later than 2020-01-01\r\n    modifier after2020() {\r\n        require(now > 1577808000);\r\n        _;\r\n    }\r\n\r\n    /**\r\n    * @dev total number of tokens in existence\r\n    */\r\n    function totalSupply() public view returns (uint256) {\r\n        return totalSupply_;\r\n    }\r\n\r\n    /**\r\n    * @dev transfer token for a specified address\r\n    * @param _to The address to transfer to.\r\n    * @param _value The amount to be transferred.\r\n    */\r\n    function transfer(address _to, uint256 _value) public whenNotPaused after2020 returns (bool) {\r\n        require(_to != address(0));\r\n        require(_value <= balances[msg.sender]);\r\n\r\n        // SafeMath.sub will throw if there is not enough balance.\r\n        balances[msg.sender] = balances[msg.sender].sub(_value);\r\n        balances[_to] = balances[_to].add(_value);\r\n        Transfer(msg.sender, _to, _value);\r\n        return true;\r\n    }\r\n\r\n    /**\r\n    * @dev Gets the balance of the specified address.\r\n    * @param _owner The address to query the the balance of.\r\n    * @return An uint256 representing the amount owned by the passed address.\r\n    */\r\n    function balanceOf(address _owner) public view returns (uint256 balance) {\r\n        return balances[_owner];\r\n    }\r\n\r\n}\r\n",
  "sourcePath": "C:\\project\\AACT\\contracts\\BasicToken.sol",
  "compiler": {
    "name": "solc",
    "version": "0.4.18+commit.9cf6e910.Emscripten.clang"
  },
  "schemaVersion": "1.0.1",
  "updatedAt": "2018-04-16T06:46:48.799Z"
}